0228010010999992018010100004+70933-008667FM-12+000999999V0200501N012012200019N015000199-00161-00601100251ADDAA106000131AY181021AY231021GA1041+012501081GE19MSL   +99999+99999GF104991041999012501999999MA1999999100131MD1310151+9999MW1021OD139902501999REMSYN07601001 11665 40512 11016 21060 30013 40025 53015 69911 70283 84800 333 91125=
0089010010999992018010101004+70933-008667FM-12+000999999V0203601N012019999999N999999999-00201-00561100211ADDMA1999999100091MD1110161+9999REMSYN04801001 46/// /3612 11020 21056 30009 40021 51016=
0089010010999992018010102004+70933-008667FM-12+000999999V0200101N019019999999N999999999-00231-00611100271ADDMA1999999100151MD1310081+9999REMSYN04801001 46/// /0119 11023 21061 30015 40027 53008=
0089010010999992018010103004+70933-008667FM-12+000999999V0203501N014019999999N999999999-00241-00561100301ADDMA1999999100181MD1310041+9999REMSYN04801001 46/// /3514 11024 21056 30018 40030 53004=
0089010010999992018010104004+70933-008667FM-12+000999999V0200101N015019999999N999999999-00281-00651100381ADDMA1999999100261MD1110171+9999REMSYN04801001 46/// /0115 11028 21065 30026 40038 51017=
0089010010999992018010105004+70933-008667FM-12+000999999V0203601N011019999999N999999999-00301-00641100421ADDMA1999999100301MD1110171+9999REMSYN04801001 46/// /3611 11030 21064 30030 40042 51017=
0293010010999992018010106004+70933-008667FM-12+000999999V0200101N013019999999N020000199-00321-00681100491ADDAA112000131AA224000231AJ199991999999999AY131021AY221021GA1061+008001061GE19MSL   +99999+99999GF106991061999008001999999IA1229KA1240N-00321MA1999999100371MD1110201+9999MW1021OD139902501999REMSYN09401001 11570 60113 11032 21068 30037 40049 51020 69912 70232 86500 333 21032 46999 70002 91125=
0089010010999992018010107004+70933-008667FM-12+000999999V0203601N011019999999N999999999-00351-00671100521ADDMA1999999100401MD1310141+9999REMSYN04801001 46/// /3611 11035 21067 30040 40052 53014=
0089010010999992018010108004+70933-008667FM-12+000999999V0203601N010019999999N999999999-00391-00681100581ADDMA1999999100461MD1110161+9999REMSYN04801001 46/// /3610 11039 21068 30046 40058 51016=
0187010010999992018010109004+70933-008667FM-12+000999999V0203601N012019999999N020000199-00471-00771100611ADDAY121021AY221021GA1071+008001061GE19MSL   +99999+99999GF107991071999008001999999MA1999999100491MD1210111+9999MW1021REMSYN06001001 41570 73612 11047 21077 30049 40061 52011 70222 875//=
0089010010999992018010110004+70933-008667FM-12+000999999V0203601N012019999999N999999999-00531-00821100641ADDMA1999999100521MD1210121+9999REMSYN04801001 46/// /3612 11053 21082 30052 40064 52012=
0089010010999992018010111004+70933-008667FM-12+000999999V0203601N013019999999N999999999-00661-01071100681ADDMA1999999100561MD1210101+9999REMSYN04801001 46/// /3613 11066 21107 30056 40068 52010=
0248010010999992018010112004+70933-008667FM-12+000999999V0203601N013019999999N010000199-00681-01081100701ADDAA106000091AY131021AY221021GA1051+008001061GE19MSL   +99999+99999GF105991051999008001999999MA1999999100581MD1990091+9999MW1021OD139901901999SA1-0031REMSYN08801001 11560 53613 11068 21108 30058 40070 50009 60001 70232 85500 222// 01003 333 91119=
0089010010999992018010113004+70933-008667FM-12+000999999V0203601N015019999999N999999999-00701-01171100721ADDMA1999999100601MD1110081+9999REMSYN04801001 46/// /3615 11070 21117 30060 40072 51008=
0089010010999992018010114004+70933-008667FM-12+000999999V0203601N012019999999N999999999-00721-01151100721ADDMA1999999100601MD1210041+9999REMSYN04801001 46/// /3612 11072 21115 30060 40072 52004=
0187010010999992018010115004+70933-008667FM-12+000999999V0203601N013019999999N015000199-00731-01141100741ADDAY131021AY221021GA1061+008001061GE19MSL   +99999+99999GF106991061999008001999999MA1999999100621MD1210051+9999MW1361REMSYN06001001 41565 63613 11073 21114 30062 40074 52005 73632 86500=
0089010010999992018010116004+70933-008667FM-12+000999999V0203601N013019999999N999999999-00721-01131100751ADDMA1999999100631MD1210031+9999REMSYN04801001 46/// /3613 11072 21113 30063 40075 52003=
0089010010999992018010117004+70933-008667FM-12+000999999V0203601N012019999999N999999999-00701-01061100781ADDMA1999999100661MD1310061+9999REMSYN04801001 46/// /3612 11070 21106 30066 40078 53006=
0247010010999992018010118004+70933-008667FM-12+000999999V0203601N013019999999N015000199-00711-01131100791ADDAA112000021AY171021AY231021GA1071+008001061GE19MSL   +99999+99999GF107991071999008001999999KA1120M-00321MA1999999100671MD1210051+9999MW1701OD139902101999REMSYN08201001 11565 73613 11071 21113 30067 40079 52005 69902 77073 875// 333 11032 91121=
0089010010999992018010119004+70933-008667FM-12+000999999V0203601N012019999999N999999999-00711-01211100821ADDMA1999999100701MD1210081+9999REMSYN04801001 46/// /3612 11071 21121 30070 40082 52008=
0089010010999992018010120004+70933-008667FM-12+000999999V0200101N010019999999N999999999-00721-01151100851ADDMA1999999100731MD1210061+9999REMSYN04801001 46/// /0110 11072 21115 30073 40085 52006=
0089010010999992018010121004+70933-008667FM-12+000999999V0203501N010019999999N999999999-00711-01171100881ADDMA1999999100761MD1210091+9999REMSYN04801001 46/// /3510 11071 21117 30076 40088 52009=
0089010010999992018010122004+70933-008667FM-12+000999999V0203601N011019999999N999999999-00721-01161100891ADDMA1999999100771MD1210071+9999REMSYN04801001 46/// /3611 11072 21116 30077 40089 52007=
0089010010999992018010123004+70933-008667FM-12+000999999V0200101N009019999999N999999999-00701-01111100921ADDMA1999999100801MD1210071+9999REMSYN04801001 46/// /0109 11070 21111 30080 40092 52007=
0228010010999992018010200004+70933-008667FM-12+000999999V0203601N009019999999N015000199-00711-01141100931ADDAA199999919AY131021AY221021GA1071+008001061GE19MSL   +99999+99999GF107991071999008001999999MA1999999100811MD1210051+9999MW1361OD139901801999REMSYN07601001 11565 73609 11071 21114 30081 40093 52005 6//// 73632 875// 333 91118=
0089010010999992018010201004+70933-008667FM-12+000999999V0203601N010019999999N999999999-00681-01101100941ADDMA1999999100821MD1210041+9999REMSYN04801001 46/// /3610 11068 21110 30082 40094 52004=
0089010010999992018010202004+70933-008667FM-12+000999999V0203601N009019999999N999999999-00671-01131100951ADDMA1999999100831MD1210031+9999REMSYN04801001 46/// /3609 11067 21113 30083 40095 52003=
0089010010999992018010203004+70933-008667FM-12+000999999V0203601N009019999999N999999999-00671-01081100921ADDMA1999999100801MD1810021+9999REMSYN04801001 46/// /3609 11067 21108 30080 40092 58002=
0089010010999992018010204004+70933-008667FM-12+000999999V0203601N008019999999N999999999-00651-01051100901ADDMA1999999100781MD1810031+9999REMSYN04801001 46/// /3608 11065 21105 30078 40090 58003=
0089010010999992018010205004+70933-008667FM-12+000999999V0203501N007019999999N999999999-00661-01081100941ADDMA1999999100821MD1510011+9999REMSYN04801001 46/// /3507 11066 21108 30082 40094 55001=
0293010010999992018010206004+70933-008667FM-12+000999999V0200101N007019999999N015000199-00621-01081100941ADDAA112000021AA224000021AJ199991999999999AY171021AY231021GA1071+008001061GE19MSL   +99999+99999GF107991071999008001999999IA1229KA1240N-00741MA1999999100821MD1210021+9999MW1701OD139901501999REMSYN09401001 11565 70107 11062 21108 30082 40094 52002 69902 77073 875// 333 21074 46999 79999 91115=
0089010010999992018010207004+70933-008667FM-12+000999999V0203601N009019999999N999999999-00651-01141100951ADDMA1999999100831MD1310051+9999REMSYN04801001 46/// /3609 11065 21114 30083 40095 53005=
0089010010999992018010208004+70933-008667FM-12+000999999V0200201N008019999999N999999999-00611-01061100951ADDMA1999999100831MD1310011+9999REMSYN04801001 46/// /0208 11061 21106 30083 40095 53001=
0187010010999992018010209004+70933-008667FM-12+000999999V0203501N008019999999N020000199-00601-01041100941ADDAY171021AY221021GA1071+008001061GE19MSL   +99999+99999GF107991071999008001999999MA1999999100821MD1510001+9999MW1701REMSYN06001001 41570 73508 11060 21104 30082 40094 55000 77072 875//=
0089010010999992018010210004+70933-008667FM-12+000999999V0200201N007019999999N999999999-00621-01041100951ADDMA1999999100831MD1510011+9999REMSYN04801001 46/// /0207 11062 21104 30083 40095 55001=
0089010010999992018010211004+70933-008667FM-12+000999999V0200101N008019999999N999999999-00631-01071100941ADDMA1999999100821MD1710011+9999REMSYN04801001 46/// /0108 11063 21107 30082 40094 57001=
0248010010999992018010212004+70933-008667FM-12+000999999V0203601N007019999999N030000199-00631-01081100961ADDAA106000021AY171021AY221021GA1071+008001061GE19MSL   +99999+99999GF107991071999008001999999MA1999999100841MD1210021+9999MW1701OD139901401999SA1-0091REMSYN08801001 11580 73607 11063 21108 30084 40096 52002 69901 77072 875// 222// 01009 333 91114=
0089010010999992018010213004+70933-008667FM-12+000999999V0200201N009019999999N999999999-00611-01011100971ADDMA1999999100851MD1310011+9999REMSYN04801001 46/// /0209 11061 21101 30085 40097 53001=
0089010010999992018010214004+70933-008667FM-12+000999999V0203501N005019999999N999999999-00591-01031100931ADDMA1999999100811MD1990011+9999REMSYN04801001 46/// /3505 11059 21103 30081 40093 50001=
0187010010999992018010215004+70933-008667FM-12+000999999V0200401N004019999999N030000199-00601-01011100931ADDAY171021AY221021GA1071+008001061GE19MSL   +99999+99999GF107991071999008001999999MA1999999100811MD1810031+9999MW1701REMSYN06001001 41580 70404 11060 21101 30081 40093 58003 77072 875//=
0089010010999992018010216004+70933-008667FM-12+000999999V0203101N002019999999N999999999-00561-01001100911ADDMA1999999100791MD1810061+9999REMSYN04801001 46/// /3102 11056 21100 30079 40091 58006=
0089010010999992018010217004+70933-008667FM-12+000999999V0200201N007019999999N999999999-00541-00961100891ADDMA1999999100771MD1810041+9999REMSYN04801001 46/// /0207 11054 21096 30077 40089 58004=
0247010010999992018010218004+70933-008667FM-12+000999999V0200101N004019999999N025000199-00561-00961100911ADDAA112000021AY171021AY221021GA1071+008001061GE19MSL   +99999+99999GF107991071999008001999999KA1120M-00511MA1999999100791MD1510021+9999MW1021OD139901301999REMSYN08201001 11575 70104 11056 21096 30079 40091 55002 69902 70272 875// 333 11051 91113=
0089010010999992018010219004+70933-008667FM-12+000999999V0203601N008019999999N999999999-00561-00961100871ADDMA1999999100751MD1810031+9999REMSYN04801001 46/// /3608 11056 21096 30075 40087 58003=
0089010010999992018010220004+70933-008667FM-12+000999999V0203601N006019999999N999999999-00581-01031100901ADDMA1999999100781MD1510011+9999REMSYN04801001 46/// /3606 11058 21103 30078 40090 55001=
0089010010999992018010221004+70933-008667FM-12+000999999V0203601N004019999999N999999999-00581-01011100901ADDMA1999999100781MD1510011+9999REMSYN04801001 46/// /3604 11058 21101 30078 40090 55001=
0089010010999992018010222004+70933-008667FM-12+000999999V0203601N005019999999N999999999-00521-00971100901ADDMA1999999100781MD1990031+9999REMSYN04801001 46/// /3605 11052 21097 30078 40090 50003=
0089010010999992018010223004+70933-008667FM-12+000999999V0203601N004019999999N999999999-00521-00901100901ADDMA1999999100781MD1410001+9999REMSYN04801001 46/// /3604 11052 21090 30078 40090 54000=
0228010010999992018010300004+70933-008667FM-12+000999999V0203601N006012200019N030000199-00501-00941100911ADDAA106000091AY121021AY211021GA1021+012501061GE19MSL   +99999+99999GF102991021999012501999999MA1999999100791MD1210011+9999MW1021OD139901101999REMSYN07601001 11680 23606 11050 21094 30079 40091 52001 60001 70221 82500 333 91111=
0112010010999992018010301004+70939-008669FM-12+001099999V0203581N0081199999999999999999-00541-00971100901ADDKA1010M-00501KA2010N-00551MA1999999100781MD1410009+9999OC101111OD190100811999REMSYN004BUFREQDQ01.1    3APC3  
0089010010999992018010302004+70933-008667FM-12+000999999V0200101N007019999999N999999999-00581-00981100931ADDMA1999999100811MD1310031+9999REMSYN04801001 46/// /0107 11058 21098 30081 40093 53003=
0089010010999992018010303004+70933-008667FM-12+000999999V0203501N004019999999N999999999-00521-00891100941ADDMA1999999100821MD1310031+9999REMSYN04801001 46/// /3504 11052 21089 30082 40094 53003=
0089010010999992018010304004+70933-008667FM-12+000999999V0200101N008019999999N999999999-00521-00901100911ADDMA1999999100791MD1990011+9999REMSYN04801001 46/// /0108 11052 21090 30079 40091 50001=
0089010010999992018010305004+70933-008667FM-12+000999999V0203601N005019999999N999999999-00551-00931100961ADDMA1999999100841MD1310031+9999REMSYN04801001 46/// /3605 11055 21093 30084 40096 53003=
0293010010999992018010306004+70933-008667FM-12+000999999V0203501N006019999999N025000199-00561-00951100971ADDAA112000091AA224000021AJ199991999999999AY121021AY211021GA1061+008001061GE19MSL   +99999+99999GF106991061999008001999999IA1229KA1240N-00611MA1999999100851MD1310041+9999MW1021OD139901201999REMSYN09401001 11575 63506 11056 21095 30085 40097 53004 60002 70221 86500 333 21061 46/// 79999 91112=
0089010010999992018010307004+70933-008667FM-12+000999999V0200101N006019999999N999999999-00561-00931101021ADDMA1999999100901MD1310111+9999REMSYN04801001 46/// /0106 11056 21093 30090 40102 53011=
0089010010999992018010308004+70933-008667FM-12+000999999V0203501N003019999999N999999999-00561-00931101071ADDMA1999999100951MD1310111+9999REMSYN04801001 46/// /3503 11056 21093 30095 40107 53011=
0187010010999992018010309004+70933-008667FM-12+000999999V0200301N005019999999N020000199-00571-00901101101ADDAY121021AY221021GA1071+008001061GE19MSL   +99999+99999GF107991071999008001999999MA1999999100981MD1310131+9999MW1021REMSYN06001001 41570 70305 11057 21090 30098 40110 53013 70222 875//=
0089010010999992018010310004+70933-008667FM-12+000999999V0200101N004019999999N999999999-00551-00931101161ADDMA1999999101041MD1110141+9999REMSYN04801001 46/// /0104 11055 21093 30104 40116 51014=
0089010010999992018010311004+70933-008667FM-12+000999999V0200101N003019999999N999999999-00551-00941101201ADDMA1999999101081MD1210121+9999REMSYN04801001 46/// /0103 11055 21094 30108 40120 52012=
0248010010999992018010312004+70933-008667FM-12+000999999V0200201N003019999999N020000199-00561-00911101221ADDAA106000091AY121021AY221021GA1081+012501061GE19MSL   +99999+99999GF108991081999012501999999MA1999999101101MD1110121+9999MW1021OD139901001999SA1-0091REMSYN08801001 11670 80203 11056 21091 30110 40122 51012 60001 70222 885// 222// 01009 333 91110=
0089010010999992018010313004+70933-008667FM-12+000999999V0203501N001019999999N999999999-00541-00901101261ADDMA1999999101141MD1210101+9999REMSYN04801001 46/// /3501 11054 21090 30114 40126 52010=
0089010010999992018010314004+70933-008667FM-12+000999999V0203201N001019999999N999999999-00531-00921101291ADDMA1999999101171MD1210091+9999REMSYN04801001 46/// /3201 11053 21092 30117 40129 52009=
0187010010999992018010315004+70933-008667FM-12+000999999V0203601N002019999999N005000199-00561-00791101301ADDAY171021AY221021GA1081+004501061GE19MSL   +99999+99999GF108991081999004501999999MA1999999101181MD1210091+9999MW1701REMSYN06001001 41450 83602 11056 21079 30118 40130 52009 77072 885//=
0089010010999992018010316004+70933-008667FM-12+000999999V0200501N002019999999N999999999-00601-00801101311ADDMA1999999101191MD1210061+9999REMSYN04801001 46/// /0502 11060 21080 30119 40131 52006=
0089010010999992018010317004+70933-008667FM-12+000999999V0203501N002019999999N999999999-00591-00781101351ADDMA1999999101231MD1210061+9999REMSYN04801001 46/// /3502 11059 21078 30123 40135 52006=
0235010010999992018010318004+70939-008669FM-12+001099999V0200101N00231010001C9015000199-00551-00831101381ADDAA112000531AY181061AY221061GA1081+010001061GA2999+999999101GA3999+999999101GE19MSL   +99999+99999GF108991081999010001999999KA1120M-00531KA2120N-00661MA1999999101261MD1310081+9999MW1261OC100621OD190600401999UA19999999049REMSYN004BUFR
0093010010999992018010319004+70939-008669FM-12+001099999V0203341N0026199999999999999999-00541-00841101401ADDKA1010M-00531KA2010N-00571MA1999999101281MD1210091+9999OC100691OD190100521999REMSYN004BUFR
0089010010999992018010320004+70933-008667FM-12+000999999V0203401N002019999999N999999999-00721-01051101421ADDMA1999999101301MD1210071+9999REMSYN04801001 46/// /3402 11072 21105 30130 40142 52007=
0089010010999992018010321004+70933-008667FM-12+000999999V0203101N002019999999N999999999-00711-01051101451ADDMA1999999101331MD1210071+9999REMSYN04801001 46/// /3102 11071 21105 30133 40145 52007=
0085010010999992018010322004+70939-008669FM-12+001099999V0203211N0022199999999999999999-00791-01221101441ADDKA1010M-00691KA2010N-00801MA1999999101321MD1210041+9999OD190100221999REMSYN004BUFR
0089010010999992018010323004+70933-008667FM-12+000999999V0203301N003019999999N999999999-00661-01191101471ADDMA1999999101351MD1210051+9999REMSYN04801001 46/// /3303 11066 21119 30135 40147 52005=
0244010010999992018010400004+70933-008667FM-12+000999999V0203201N003012200019N020000199-00661-01151101481ADDAA106000091AY111021AY211021GA1031+008001081GA2999+999999031GE19MSL   +99999+99999GF104991031999008001999999MA1999999101361MD1210031+9999MW1011OD139900701999REMSYN07601001 11570 43203 11066 21115 30136 40148 52003 60001 70111 83840 333 91107=
0089010010999992018010401004+70933-008667FM-12+000999999V0203001N004019999999N999999999-00721-01181101491ADDMA1999999101371MD1210051+9999REMSYN04801001 46/// /3004 11072 21118 30137 40149 52005=
0089010010999992018010402004+70933-008667FM-12+000999999V0202901N003019999999N999999999-00781-01211101501ADDMA1999999101381MD1210031+9999REMSYN04801001 46/// /2903 11078 21121 30138 40150 52003=
0089010010999992018010403004+70933-008667FM-12+000999999V0202701N004019999999N999999999-00781-01191101491ADDMA1999999101371MD1210021+9999REMSYN04801001 46/// /2704 11078 21119 30137 40149 52002=
0089010010999992018010404004+70933-008667FM-12+000999999V0202701N004019999999N999999999-00631-00991101481ADDMA1999999101361MD1410001+9999REMSYN04801001 46/// /2704 11063 21099 30136 40148 54000=
0089010010999992018010405004+70933-008667FM-12+000999999V0203001N004019999999N999999999-00501-00781101481ADDMA1999999101361MD1710021+9999REMSYN04801001 46/// /3004 11050 21078 30136 40148 57002=
0293010010999992018010406004+70933-008667FM-12+000999999V0203101N003019999999N005000199-00471-00741101501ADDAA112000131AA224000631AJ199991999999999AY181021AY221021GA1071+008001091GE19MSL   +99999+99999GF107991071999008001999999IA1229KA1240N-00841MA1999999101381MD1310011+9999MW1851OD139900601999REMSYN09401001 11550 73103 11047 21074 30138 40150 53001 69912 78582 873// 333 21084 46999 70006 91106=
0093010010999992018010407004+70939-008669FM-12+001099999V0202961N0030199999999999999999-00451-00691101531ADDKA1010M-00451KA2010N-00491MA1999999101411MD1310041+9999OC100711OD190100571999REMSYN004BUFR
0093010010999992018010408004+70939-008669FM-12+001099999V0203361N0033199999999999999999-00421-00671101561ADDKA1010M-00421KA2010N-00471MA1999999101441MD1210081+9999OC100501OD190100341999REMSYN004BUFR
0224010010999992018010409004+70939-008669FM-12+001099999V0200261N00631003001C9003500199-00451-00711101591ADDAY171031AY221031GA1081+003001061GA2999+999999101GA3999+999999101GE19MSL   +99999+99999GF108991081999003001999999KA1010M-00411KA2010N-00471MA1999999101471MD1310091+9999MW1731OC100901OD190100771999UA19999999049REMSYN004BUFR
0089010010999992018010410004+70933-008667FM-12+000999999V0200101N010019999999N999999999-00541-00781101661ADDMA1999999101541MD1310141+9999REMSYN04801001 46/// /0110 11054 21078 30154 40166 53014=
0093010010999992018010411004+70939-008669FM-12+001099999V0200121N0093199999999999999999-00571-00771101691ADDKA1010M-00541KA2010N-00571MA1999999101571MD1210141+9999OC101151OD190100981999REMSYN004BUFR
0219010010999992018010412004+70939-008669FM-12+001099999V0200101N00831003001C9015000199-00621-00881101731ADDAA106001431AY171061AY221061GA1051+003001081GA2999+999999001GE19MSL   +99999+99999GF106991051999003001999999KA1010M-00571KA2010N-00621MA1999999101611MD1110141+9999MW1021OC101191OD190601061999UA19999999049REMSYN004BUFR
0093010010999992018010413004+70939-008669FM-12+001099999V0203591N0093199999999999999999-00651-00901101771ADDKA1010M-00621KA2010N-00651MA1999999101651MD1210111+9999OC101311OD190100931999REMSYN004BUFR
0089010010999992018010414004+70933-008667FM-12+000999999V0203601N008019999999N999999999-00691-00991101821ADDMA1999999101701MD1310121+9999REMSYN04801001 46/// /3608 11069 21099 30170 40182 53012=
0187010010999992018010415004+70933-008667FM-12+000999999V0203501N007019999999N015000199-00711-01041101811ADDAY121021AY221021GA1071+004501081GE19MSL   +99999+99999GF107991071999004501999999MA1999999101691MD1990081+9999MW1021REMSYN06001001 41465 73507 11071 21104 30169 40181 50008 70222 878//=
0089010010999992018010416004+70933-008667FM-12+000999999V0203601N008019999999N999999999-00781-01111101811ADDMA1999999101691MD1990041+9999REMSYN04801001 46/// /3608 11078 21111 30169 40181 50004=
0089010010999992018010417004+70933-008667FM-12+000999999V0203601N008019999999N999999999-00811-01171101851ADDMA1999999101731MD1310031+9999REMSYN04801001 46/// /3608 11081 21117 30173 40185 53003=
0228010010999992018010418004+70933-008667FM-12+000999999V0203601N008019999999N012000199-00841-01201101871ADDAA112001031AY171021AY231021GA1071+008001061GE19MSL   +99999+99999GF107991071999008001999999MA1999999101751MD1310071+9999MW1701OD139901501999REMSYN07601001 11562 73608 11084 21120 30175 40187 53007 60012 77073 875// 333 91115=
0093010010999992018010419004+70939-008669FM-12+001099999V0203541N0100199999999999999999-00841-01181101891ADDKA1010M-00831KA2010N-00851MA1999999101771MD1210091+9999OC101291OD190101041999REMSYN004BUFR
0089010010999992018010420004+70933-008667FM-12+000999999V0203601N009019999999N999999999-00901-01121101941ADDMA1999999101821MD1310091+9999REMSYN04801001 46/// /3609 11090 21112 30182 40194 53009=
0089010010999992018010421004+70933-008667FM-12+000999999V0203601N010019999999N999999999-00911-01161101951ADDMA1999999101831MD1990081+9999REMSYN04801001 46/// /3610 11091 21116 30183 40195 50008=
0089010010999992018010422004+70933-008667FM-12+000999999V0203601N011019999999N999999999-00951-01241101981ADDMA1999999101861MD1990091+9999REMSYN04801001 46/// /3611 11095 21124 30186 40198 50009=
0089010010999992018010423004+70933-008667FM-12+000999999V0203501N010019999999N999999999-01001-01321102061ADDMA1999999101941MD1310121+9999REMSYN04801001 46/// /3510 11100 21132 30194 40206 53012=
0228010010999992018010500004+70933-008667FM-12+000999999V0203501N010019999999N002000199-01051-01431102091ADDAA106000231AY181021AY271021GA1081+008001061GE19MSL   +99999+99999GF108991081999008001999999MA1999999101971MD1310141+9999MW1711OD139901601999REMSYN07601001 11520 83510 11105 21143 30197 40209 53014 69921 77187 885// 333 91116=
0093010010999992018010501004+70939-008669FM-12+001099999V0203401N0104199999999999999999-01071-01471102141ADDKA1010M-01051KA2010N-01091MA1999999102021MD1310161+9999OC101461OD190101051999REMSYN004BUFR
0093010010999992018010502004+70939-008669FM-12+001099999V0203441N0079199999999999999999-01101-01501102181ADDKA1010M-01091KA2010N-01131MA1999999102061MD1310121+9999OC101131OD190101021999REMSYN004BUFR
0089010010999992018010503004+70933-008667FM-12+000999999V0203401N008019999999N999999999-01141-01561102181ADDMA1999999102061MD1990091+9999REMSYN04801001 46/// /3408 11114 21156 30206 40218 50009=
0093010010999992018010504004+70939-008669FM-12+001099999V0203451N0096199999999999999999-01171-01651102191ADDKA1010M-01131KA2010N-01171MA1999999102061MD1010041+9999OC101281OD190100961999REMSYN004BUFR
0093010010999992018010505004+70939-008669FM-12+001099999V0203371N0087199999999999999999-01251-01771102221ADDKA1010M-01181KA2010N-01251MA1999999102091MD1210031+9999OC101281OD190101031999REMSYN004BUFR
0097010010999992018010506004+70933-008667FM-12+000999999V020999999999999999999999999999+99999+99999999999REMSYN08801001 11X05 93511 11129 21166 30208 40221 50002 69932 73973 333 21131 46999 70017 91117=
0089010010999992018010507004+70933-008667FM-12+000999999V0203401N010019999999N999999999-01321-01711102271ADDMA1999999102141MD1310081+9999REMSYN04801001 46/// /3410 11132 21171 30214 40227 53008=
0093010010999992018010508004+70939-008669FM-12+001099999V0203401N0094199999999999999999-01321-01821102271ADDKA1010M-01311KA2010N-01361MA1999999102141MD1310051+9999OC101671OD190101131999REMSYN004BUFR
0224010010999992018010509004+70939-008669FM-12+001099999V0203351N0108199999999000200199-01321-01811102261ADDAY181031AY271031GA1091+999999101GA2999+999999101GA3999+999999101GE19MSL   +99999+99999GF199999091999999999999999KA1010M-01321KA2010N-01391MA1999999102131MD1010051+9999MW1861OC101831OD190101211999UA19999999059REMSYN004BUFR
0093010010999992018010510004+70939-008669FM-12+001099999V0203381N0097199999999999999999-01271-01541102221ADDKA1010M-01271KA2010N-01331MA1999999102091MD1810051+9999OC101601OD190101111999REMSYN004BUFR
0089010010999992018010511004+70933-008667FM-12+000999999V0203401N010019999999N999999999-01251-01661102191ADDMA1999999102061MD1710081+9999REMSYN04801001 46/// /3410 11125 21166 30206 40219 57008=
0248010010999992018010512004+70933-008667FM-12+000999999V0203401N012019999999N002000199-01211-01471102181ADDAA106000331AY181021AY271021GA1061+004501061GE19MSL   +99999+99999GF106991061999004501999999MA1999999102051MD1710081+9999MW1381OD139902201999SA1-0131REMSYN08801001 11420 63412 11121 21147 30205 40218 57008 69931 73887 86500 222// 01013 333 91122=
0089010010999992018010513004+70933-008667FM-12+000999999V0203401N012019999999N999999999-01171-01341102201ADDMA1999999102071MD1510021+9999REMSYN04801001 46/// /3412 11117 21134 30207 40220 55002=
0089010010999992018010514004+70933-008667FM-12+000999999V0203401N012019999999N999999999-01161-01621102161ADDMA1999999102031MD1810031+9999REMSYN04801001 46/// /3412 11116 21162 30203 40216 58003=
0224010010999992018010515004+70939-008669FM-12+001099999V0203411N0117199999999000100199-01101-01531102101ADDAY181031AY271031GA1091+999999101GA2999+999999101GA3999+999999101GE19MSL   +99999+99999GF199999091999999999999999KA1010M-01101KA2010N-01161MA1999999101981MD1810061+9999MW1861OC101741OD190101311999UA19999999059REMSYN004BUFR
0093010010999992018010516004+70939-008669FM-12+001099999V0203431N0107199999999999999999-01101-01381102151ADDKA1010M-01071KA2010N-01121MA1999999102031MD1510041+9999OC101771OD190101261999REMSYN004BUFR
0089010010999992018010517004+70933-008667FM-12+000999999V0203401N011019999999N999999999-01101-01451102141ADDMA1999999102021MD1510011+9999REMSYN04801001 46/// /3411 11110 21145 30202 40214 55001=
0247010010999992018010518004+70933-008667FM-12+000999999V0203401N010019999999N002000199-01041-01551102151ADDAA112000831AY181021AY271021GA1081+008001081GE19MSL   +99999+99999GF108991081999008001999999KA1120M-01041MA1999999102031MD1110041+9999MW1851OD139902101999REMSYN08201001 11520 83410 11104 21155 30203 40215 51004 69982 78587 888// 333 11104 91121=
0089010010999992018010519004+70933-008667FM-12+000999999V0203401N010019999999N999999999-01021-01571102161ADDMA1999999102041MD1510011+9999REMSYN04801001 46/// /3410 11102 21157 30204 40216 55001=
0093010010999992018010520004+70939-008669FM-12+001099999V0203421N0105199999999999999999-01021-01411102181ADDKA1010M-00981KA2010N-01041MA1999999102061MD1310041+9999OC101711OD190101131999REMSYN004BUFR
0089010010999992018010521004+70933-008667FM-12+000999999V0203401N009019999999N999999999-01041-01421102191ADDMA1999999102071MD1210041+9999REMSYN04801001 46/// /3409 11104 21142 30207 40219 52004=
0093010010999992018010522004+70939-008669FM-12+001099999V0203331N0098199999999999999999-01001-01421102191ADDKA1010M-00971KA2010N-01041MA1999999102071MD1010031+9999OC101551OD190101191999REMSYN004BUFR
0089010010999992018010523004+70933-008667FM-12+000999999V0203401N010019999999N999999999-00961-01411102151ADDMA1999999102031MD1810031+9999REMSYN04801001 46/// /3410 11096 21141 30203 40215 58003=
0228010010999992018010600004+70933-008667FM-12+000999999V0203501N008019999999N005000199-00931-01371102151ADDAA106000131AY181021AY271021GA1071+008001061GE19MSL   +99999+99999GF107991071999008001999999MA1999999102031MD1510041+9999MW1701OD139901801999REMSYN07601001 11550 73508 11093 21137 30203 40215 55004 69911 77087 875// 333 91118=
0089010010999992018010601004+70933-008667FM-12+000999999V0203401N009019999999N999999999-00921-01401102151ADDMA1999999102031MD1510031+9999REMSYN04801001 46/// /3409 11092 21140 30203 40215 55003=
0093010010999992018010602004+70939-008669FM-12+001099999V0203391N0097199999999999999999-00921-01501102131ADDKA1010M-00901KA2010N-00931MA1999999102011MD1810021+9999OC101511OD190101121999REMSYN004BUFR
0089010010999992018010603004+70933-008667FM-12+000999999V0203401N008019999999N999999999-00931-01301102131ADDMA1999999102011MD1710021+9999REMSYN04801001 46/// /3408 11093 21130 30201 40213 57002=
0089010010999992018010604004+70933-008667FM-12+000999999V0203401N007019999999N999999999-00931-01371102091ADDMA1999999101971MD1810071+9999REMSYN04801001 46/// /3407 11093 21137 30197 40209 58007=
0089010010999992018010605004+70933-008667FM-12+000999999V0203601N006019999999N999999999-00951-01561102061ADDMA1999999101941MD1810061+9999REMSYN04801001 46/// /3606 11095 21156 30194 40206 58006=
0293010010999992018010606004+70933-008667FM-12+000999999V0203301N007019999999N006000199-00951-01431102041ADDAA112000231AA224001031AJ199991999999999AY171021AY231021GA1071+008001061GE19MSL   +99999+99999GF107991071999008001999999IA1229KA1240N-01061MA1999999101921MD1710091+9999MW1701OD139901801999REMSYN09401001 11556 73307 11095 21143 30192 40204 57009 69922 77073 875// 333 21106 46999 70010 91118=
0089010010999992018010607004+70933-008667FM-12+000999999V0203301N008019999999N999999999-00971-01501102021ADDMA1999999101901MD1710071+9999REMSYN04801001 46/// /3308 11097 21150 30190 40202 57007=
0089010010999992018010608004+70933-008667FM-12+000999999V0203401N007019999999N999999999-00981-01421102031ADDMA1999999101911MD1510041+9999REMSYN04801001 46/// /3407 11098 21142 30191 40203 55004=
0187010010999992018010609004+70933-008667FM-12+000999999V0203501N007019999999N003000199-01051-01451102011ADDAY181021AY271021GA1081+008001081GE19MSL   +99999+99999GF108991081999008001999999MA1999999101891MD1710031+9999MW1851REMSYN06001001 41530 83507 11105 21145 30189 40201 57003 78587 888//=
0093010010999992018010610004+70939-008669FM-12+001099999V0203501N0082199999999999999999-01051-01411101981ADDKA1010M-01021KA2010N-01061MA1999999101861MD1810041+9999OC101231OD190100821999REMSYN004BUFR
0089010010999992018010611004+70933-008667FM-12+000999999V0203401N006019999999N999999999-01101-01461101931ADDMA1999999101811MD1710101+9999REMSYN04801001 46/// /3406 11110 21146 30181 40193 57010=
0235010010999992018010612004+70939-008669FM-12+001099999V0203511N00511003001C9006000199-01091-01691101901ADDAA106000231AY181061AY271061GA1071+003001081GA2999+999999101GA3999+999999101GE19MSL   +99999+99999GF107991071999003001999999KA1010M-01071KA2010N-01121MA1999999101781MD1810111+9999MW1851OC101291OD190600821999UA19999999059REMSYN004BUFR
0089010010999992018010613004+70933-008667FM-12+000999999V0203401N008019999999N999999999-01151-01461101881ADDMA1999999101761MD1710091+9999REMSYN04801001 46/// /3408 11115 21146 30176 40188 57009=
0089010010999992018010614004+70933-008667FM-12+000999999V0203501N008019999999N999999999-01151-01721101851ADDMA1999999101731MD1810081+9999REMSYN04801001 46/// /3508 11115 21172 30173 40185 58008=
0187010010999992018010615004+70933-008667FM-12+000999999V0203401N007019999999N006000199-01181-01811101801ADDAY181021AY231021GA1081+008001081GE19MSL   +99999+99999GF108991081999008001999999MA1999999101681MD1810101+9999MW1851REMSYN06001001 41556 83407 11118 21181 30168 40180 58010 78583 888//=
0089010010999992018010616004+70933-008667FM-12+000999999V0203301N007019999999N999999999-01181-01691101711ADDMA1999999101591MD1810181+9999REMSYN04801001 46/// /3307 11118 21169 30159 40171 58018=
0093010010999992018010617004+70939-008669FM-12+001099999V0203371N0085199999999999999999-01191-01671101681ADDKA1010M-01161KA2010N-01231MA1999999101561MD1710161+9999OC101221OD190100901999REMSYN004BUFR
0203010010999992018010618004+70939-008669FM-12+001099999V0203421N00921003001C9020000199-01201-01701101641ADDAA112000231AY181061AY231061GA1051+003001061GE19MSL   +99999+99999GF105991051999003001999999KA1120M-00941KA2120N-01241MA1999999101521MD1610161+9999MW1021OC101441OD190600921999UA19999999059REMSYN004BUFR
0093010010999992018010619004+70939-008669FM-12+001099999V0203351N0080199999999999999999-01201-01711101631ADDKA1010M-01201KA2010N-01231MA1999999101511MD1710081+9999OC101351OD190100941999REMSYN004BUFR
0093010010999992018010620004+70939-008669FM-12+001099999V0203301N0092199999999999999999-01251-01501101631ADDKA1010M-01201KA2010N-01281MA1999999101511MD1510061+9999OC101441OD190100941999REMSYN004BUFR
0089010010999992018010621004+70933-008667FM-12+000999999V0203301N009019999999N999999999-01151-01561101561ADDMA1999999101441MD1810081+9999REMSYN04801001 46/// /3309 11115 21156 30144 40156 58008=
0093010010999992018010622004+70939-008669FM-12+001099999V0203511N0057199999999999999999-01101-01611101501ADDKA1010M-01091KA2010N-01141MA1999999101381MD1810131+9999OC101091OD190100871999REMSYN004BUFR
0089010010999992018010623004+70933-008667FM-12+000999999V0203401N009019999999N999999999-01081-01521101471ADDMA1999999101351MD1610161+9999REMSYN04801001 46/// /3409 11108 21152 30135 40147 56016=
0247010010999992018010700004+70933-008667FM-12+000999999V0203401N010019999999N010000199-01051-01521101461ADDAA106000091AY181021AY231021GA1051+004501061GE19MSL   +99999+99999GF105991051999004501999999MA1999999101341MD1610101+9999MW1361OD139901801999REMSYN07601001 11460 53410 11105 21152 30134 40146 56010 69901 73683 85500 333 91118=EQDQ01  00002PRCP06
0089010010999992018010701004+70933-008667FM-12+000999999V0203401N010019999999N999999999-01081-01591101451ADDMA1999999101331MD1610051+9999REMSYN04801001 46/// /3410 11108 21159 30133 40145 56005=
0093010010999992018010702004+70939-008669FM-12+001099999V0203421N0091199999999999999999-01091-01581101431ADDKA1010M-01061KA2010N-01111MA1999999101311MD1710041+9999OC101651OD190101061999REMSYN004BUFR
0089010010999992018010703004+70933-008667FM-12+000999999V0203301N009019999999N999999999-01111-01711101441ADDMA1999999101321MD1710021+9999REMSYN04801001 46/// /3309 11111 21171 30132 40144 57002=
0089010010999992018010704004+70933-008667FM-12+000999999V0203401N010019999999N999999999-01151-01621101411ADDMA1999999101291MD1810041+9999REMSYN04801001 46/// /3410 11115 21162 30129 40141 58004=
0093010010999992018010705004+70939-008669FM-12+001099999V0203451N0097199999999999999999-01101-01731101401ADDKA1010M-01101KA2010N-01191MA1999999101281MD1810041+9999OC101761OD190101071999REMSYN004BUFR
0293010010999992018010706004+70933-008667FM-12+000999999V0203401N011019999999N005000199-01151-01441101381ADDAA112000131AA224000331AJ199991999999999AY181021AY231021GA1071+004501061GE19MSL   +99999+99999GF107991071999004501999999IA1229KA1240N-01281MA1999999101261MD1710051+9999MW1361OD139902001999REMSYN09401001 11450 73411 11115 21144 30126 40138 57005 69912 73683 875// 333 21128 46/// 70003 91120=
0093010010999992018010707004+70939-008669FM-12+001099999V0203411N0098199999999999999999-01121-01601101381ADDKA1010M-01111KA2010N-01181MA1999999101261MD1710031+9999OC101581OD190101221999REMSYN004BUFR
0089010010999992018010708004+70933-008667FM-12+000999999V0203401N011019999999N999999999-01141-01451101421ADDMA1999999101301MD1310031+9999REMSYN04801001 46/// /3411 11114 21145 30130 40142 53003=
0187010010999992018010709004+70933-008667FM-12+000999999V0203401N012019999999N003000199-01131-01341101471ADDAY131021AY221021GA1081+004501061GE19MSL   +99999+99999GF108991081999004501999999MA1999999101351MD1310081+9999MW1361REMSYN06001001 41430 83412 11113 21134 30135 40147 53008 73632 885//=
0089010010999992018010710004+70933-008667FM-12+000999999V0203401N010019999999N999999999-01131-01371101521ADDMA1999999101401MD1310141+9999REMSYN04801001 46/// /3410 11113 21137 30140 40152 53014=
0089010010999992018010711004+70933-008667FM-12+000999999V0203501N011019999999N999999999-01131-01511101551ADDMA1999999101431MD1990131+9999REMSYN04801001 46/// /3511 11113 21151 30143 40155 50013=
0248010010999992018010712004+70933-008667FM-12+000999999V0203401N011019999999N005000199-01111-01521101601ADDAA106000131AY181021AY231021GA1071+004501061GE19MSL   +99999+99999GF107991071999004501999999MA1999999101481MD1110131+9999MW1361OD139902201999SA1-0051REMSYN08801001 11450 73411 11111 21152 30148 40160 51013 69911 73683 875// 222// 01005 333 91122=
0089010010999992018010713004+70933-008667FM-12+000999999V0203201N011019999999N999999999-01141-01541101601ADDMA1999999101481MD1110081+9999REMSYN04801001 46/// /3211 11114 21154 30148 40160 51008=
0093010010999992018010714004+70939-008669FM-12+001099999V0203311N0140199999999999999999-01141-01531101541ADDKA1010M-01131KA2010N-01181MA1999999101421MD1010001+9999OC102091OD190101401999REMSYN004BUFR
0224010010999992018010715004+70939-008669FM-12+001099999V0203341N01171003001C9005000199-01121-01551101551ADDAY131031AY221031GA1071+003001061GA2999+999999101GA3999+999999101GE19MSL   +99999+99999GF107991071999003001999999KA1010M-01121KA2010N-01151MA1999999101431MD1510041+9999MW1361OC101791OD190101441999UA19999999059REMSYN004BUFR
0093010010999992018010716004+70939-008669FM-12+001099999V0203391N0102199999999999999999-01101-01451101551ADDKA1010M-01111KA2010N-01151MA1999999101431MD1510051+9999OC101591OD190101281999REMSYN004BUFR
0093010010999992018010717004+70939-008669FM-12+001099999V0203381N0082199999999999999999-01091-01561101591ADDKA1010M-01091KA2010N-01121MA1999999101471MD1310051+9999OC101811OD190101001999REMSYN004BUFR
0247010010999992018010718004+70933-008667FM-12+000999999V0203401N008019999999N010000199-01081-01511101611ADDAA112000131AY171021AY231021GA1081+008001061GE19MSL   +99999+99999GF108991081999008001999999KA1120M-01081MA1999999101491MD1310061+9999MW1711OD139902201999REMSYN08201001 11560 83408 11108 21151 30149 40161 53006 69912 77173 885// 333 11108 91122=
0089010010999992018010719004+70933-008667FM-12+000999999V0203301N008019999999N999999999-01091-01451101621ADDMA1999999101501MD1110071+9999REMSYN04801001 46/// /3308 11109 21145 30150 40162 51007=
0089010010999992018010720004+70933-008667FM-12+000999999V0203301N007019999999N999999999-01061-01611101621ADDMA1999999101501MD1990031+9999REMSYN04801001 46/// /3307 11106 21161 30150 40162 50003=
0089010010999992018010721004+70933-008667FM-12+000999999V0203401N005019999999N999999999-01051-01511101611ADDMA1999999101491MD1990001+9999REMSYN04801001 46/// /3405 11105 21151 30149 40161 50000=
0089010010999992018010722004+70933-008667FM-12+000999999V0203601N006019999999N999999999-01061-01571101561ADDMA1999999101441MD1810061+9999REMSYN04801001 46/// /3606 11106 21157 30144 40156 58006=
0089010010999992018010723004+70933-008667FM-12+000999999V0203401N005019999999N999999999-01071-01571101571ADDMA1999999101451MD1810051+9999REMSYN04801001 46/// /3405 11107 21157 30145 40157 58005=
0203010010999992018010800004+70939-008669FM-12+001099999V0203411N0056122000199025000199-01021-01451101501ADDAA106999999AY101061AY201061GA1021+006001081GE19MSL   +99999+99999GF102991021999006001999999KA1010M-01031KA2010N-01081MA1999999101381MD1810111+9999MW1011OC100631OD190600881999UA19999999059REMSYN004BUFR
0093010010999992018010801004+70939-008669FM-12+001099999V0203491N0047199999999999999999-00991-01441101461ADDKA1010M-00991KA2010N-01031MA1999999101341MD1810101+9999OC100631OD190100551999REMSYN004BUFR
0089010010999992018010802004+70933-008667FM-12+000999999V0200701N004019999999N999999999-00881-01261101361ADDMA1999999101241MD1810211+9999REMSYN04801001 46/// /0704 11088 21126 30124 40136 58021=
0089010010999992018010803004+70933-008667FM-12+000999999V0201201N007019999999N999999999-00791-01241101341ADDMA1999999101221MD1510151+9999REMSYN04801001 46/// /1207 11079 21124 30122 40134 55015=
0093010010999992018010804004+70939-008669FM-12+001099999V0201121N0075199999999999999999-00771-01201101281ADDKA1010M-00751KA2010N-00801MA1999999101161MD1510181+9999OC101111OD190100781999REMSYN004BUFR
0089010010999992018010805004+70933-008667FM-12+000999999V0201001N007019999999N999999999-00761-01161101161ADDMA1999999101041MD1810211+9999REMSYN04801001 46/// /1007 11076 21116 30104 40116 58021=
0276010010999992018010806004+70933-008667FM-12+000999999V0200901N010019999999N015000199-00701-01041100991ADDAA106000091AJ199991999999999AY121021AY221021GA1081+008001061GE19MSL   +99999+99999GF108991081999008001999999IA1229KA1240N-01121MA1999999100871MD1810361+9999MW1031OD139901301999REMSYN08801001 11565 80910 11070 21104 30087 40099 58036 60001 70322 885// 333 21112 46999 91113=
0093010010999992018010807004+70939-008669FM-12+001099999V0201011N0113199999999999999999-00571-00921100851ADDKA1010M-00561KA2010N-00701MA1999999100731MD1810431+9999OC101411OD190101241999REMSYN004BUFR
0089010010999992018010808004+70933-008667FM-12+000999999V0201001N013019999999N999999999-00561-00821100711ADDMA1999999100591MD1810451+9999REMSYN04801001 46/// /1013 11056 21082 30059 40071 58045=
0187010010999992018010809004+70933-008667FM-12+000999999V0200901N015019999999N010000199-00491-00631100531ADDAY121021AY221021GA1081+008001061GE19MSL   +99999+99999GF108991081999008001999999MA1999999100411MD1810461+9999MW1731REMSYN06001001 41560 80915 11049 21063 30041 40053 58046 77322 885//=
0089010010999992018010810004+70933-008667FM-12+000999999V0200901N016019999999N999999999-00431-00501100331ADDMA1999999100211MD1810531+9999REMSYN04801001 46/// /0916 11043 21050 30021 40033 58053=
0089010010999992018010811004+70933-008667FM-12+000999999V0200901N017019999999N999999999-00361-00421100011ADDMA1999999099891MD1810701+9999REMSYN04801001 46/// /0917 11036 21042 39989 40001 58070=
0235010010999992018010812004+70939-008669FM-12+001099999V0200911N01591006001C9000500199-00221-00271099811ADDAA106001831AY181061AY231061GA1081+006001061GA2999+999999101GA3999+999999101GE19MSL   +99999+99999GF108991081999006001999999KA1010M-00231KA2010N-00361MA1999999099691MD1810711+9999MW1731OC102061OD190601791999UA19999999069REMSYN004BUFR
0093010010999992018010813004+70939-008669FM-12+001099999V0200901N0160199999999999999999-00151-00191099561ADDKA1010M-00161KA2010N-00231MA1999999099441MD1810771+9999OC102141OD190101721999REMSYN004BUFR
0089010010999992018010814004+70933-008667FM-12+000999999V0200901N014019999999N999999999-00091-00121099281ADDMA1999999099161MD1810731+9999REMSYN04801001 46/// /0914 11009 21012 39916 49928 58073=
0224010010999992018010815004+70939-008669FM-12+001099999V0200881N01221003001C9004000199+00001-00021099062ADDAY171031AY231031GA1081+003001061GA2999+999999101GA3999+999999101GE19MSL   +99999+99999GF108991081999003001999999KA1010M+00001KA2010N-00091MA1999999098942MD1810751+9999MW1731OC101571OD190101731999UA19999999069REMSYN004BUFR
0089010010999992018010816004+70933-008667FM-12+000999999V0201801N004019999999N999999999+00071+00041099062ADDMA1999999098942MD1610501+9999REMSYN04801001 46/// /1804 10007 20004 39894 49906 56050=
0089010010999992018010817004+70933-008667FM-12+000999999V0202001N010019999999N999999999+00101+00081099112ADDMA1999999098992MD1510171+9999REMSYN04801001 46/// /2010 10010 20008 39899 49911 55017=
0247010010999992018010818004+70933-008667FM-12+000999999V0201901N004012200019N005000199+00051-00011099241ADDAA112007031AY171021AY261021GA1021+004501071GE19MSL   +99999+99999GF102991021999004501999999KA1120M+00141MA1999999099121MD1310181+9999MW1101OD139902401999REMSYN08201001 11450 21904 10005 21001 39912 49924 53018 60072 71076 82600 333 10014 91124=
0093010010999992018010819004+70939-008669FM-12+001099999V0201101N0031199999999999999999+00071-00031099341ADDKA1010M+00101KA2010N+00051MA1999999099221MD1310281+9999OC100741OD190100661999REMSYN004BUFR
0089010010999992018010820004+70933-008667FM-12+000999999V0201501N006019999999N999999999+00071-00061099401ADDMA1999999099281MD1110291+9999REMSYN04801001 46/// /1506 10007 21006 39928 49940 51029=
0089010010999992018010821004+70933-008667FM-12+000999999V0202001N009019999999N999999999+00071-00151099461ADDMA1999999099341MD1110231+9999REMSYN04801001 46/// /2009 10007 21015 39934 49946 51023=
0089010010999992018010822004+70933-008667FM-12+000999999V0202101N010019999999N999999999+00051-00261099561ADDMA1999999099441MD1310221+9999REMSYN04801001 46/// /2110 10005 21026 39944 49956 53022=
0089010010999992018010823004+70933-008667FM-12+000999999V0202101N011019999999N999999999+00041-00181099621ADDMA1999999099501MD1210231+9999REMSYN04801001 46/// /2111 10004 21018 39950 49962 52023=
0228010010999992018010900004+70933-008667FM-12+000999999V0202401N011012200019N008000199+00111-00411099761ADDAA106000091AY101021AY201021GA1021+004501061GE19MSL   +99999+99999GF102991021999004501999999MA1999999099641MD1310301+9999MW1101OD139901701999REMSYN07601001 11458 22411 10011 21041 39964 49976 53030 60001 71000 82500 333 91117=
0089010010999992018010901004+70933-008667FM-12+000999999V0202601N019019999999N999999999+00021-00361099821ADDMA1999999099701MD1310261+9999REMSYN04801001 46/// /2619 10002 21036 39970 49982 53026=
0089010010999992018010902004+70933-008667FM-12+000999999V0202601N017019999999N999999999-00011-00281100001ADDMA1999999099881MD1310371+9999REMSYN04801001 46/// /2617 11001 21028 39988 40000 53037=
0089010010999992018010903004+70933-008667FM-12+000999999V0202701N012019999999N999999999-00061-00251100241ADDMA1999999100121MD1310481+9999REMSYN04801001 46/// /2712 11006 21025 30012 40024 53048=
0089010010999992018010904004+70933-008667FM-12+000999999V0202701N008019999999N999999999-00161-00301100451ADDMA1999999100331MD1310631+9999REMSYN04801001 46/// /2708 11016 21030 30033 40045 53063=
0093010010999992018010905004+70939-008669FM-12+001099999V0202741N0094199999999999999999-00251-00401100511ADDKA1010M-00161KA2010N-00251MA1999999100391MD1110521+9999OC101521OD190100941999REMSYN004BUFR
0293010010999992018010906004+70933-008667FM-12+000999999V0202801N010019999999N006000199-00311-00441100601ADDAA112000091AA224006731AJ199991999999999AY121021AY221021GA1071+002501071GE19MSL   +99999+99999GF107991071999002501999999IA1269KA1240N-00311MA1999999100481MD1110371+9999MW1101OD139902701999REMSYN09401001 11356 72810 11031 21044 30048 40060 51037 60002 71022 876// 333 21031 42999 70067 91127=
0093010010999992018010907004+70939-008669FM-12+001099999V0202781N0100199999999999999999-00371-00501100641ADDKA1010M-00311KA2010N-00371MA1999999100521MD1310191+9999OC101391OD190101051999REMSYN004BUFR
0089010010999992018010908004+70933-008667FM-12+000999999V0202901N006019999999N999999999-00341-00561100761ADDMA1999999100641MD1310241+9999REMSYN04801001 46/// /2906 11034 21056 30064 40076 53024=
0187010010999992018010909004+70933-008667FM-12+000999999V0202501N005019999999N012000199-00291-00531100811ADDAY121021AY221021GA1071+002501071GE19MSL   +99999+99999GF107991071999002501999999MA1999999100691MD1310201+9999MW1021REMSYN06001001 41362 72505 11029 21053 30069 40081 53020 70222 876//=
0093010010999992018010910004+70939-008669FM-12+001099999V0201851N0038199999999999999999-00251-00451100911ADDKA1010M-00251KA2010N-00361MA1999999100791MD1310261+9999OC100581OD190100591999REMSYN004BUFR
0089010010999992018010911004+70933-008667FM-12+000999999V0200201N004019999999N999999999-00361-00531100921ADDMA1999999100801MD1310161+9999REMSYN04801001 46/// /0204 11036 21053 30080 40092 53016=
0264010010999992018010912004+70933-008667FM-12+000999999V0209999C999999999999N008000199-00381-00551101001ADDAA106000091AY121021AY221021GA1011+002501071GA2999+999999031GE19MSL   +99999+99999GF107991011999002501999999MA1999999100881MD1310191+9999MW1101OD139901501999SA1-0101REMSYN08801001 11358 7//// 11038 21055 30088 40100 53019 60001 71022 8167/ 222// 01010 333 91115=
0089010010999992018010913004+70933-008667FM-12+000999999V0203601N002019999999N999999999-00281-00421100961ADDMA1999999100841MD1990051+9999REMSYN04801001 46/// /3602 11028 21042 30084 40096 50005=
0089010010999992018010914004+70933-008667FM-12+000999999V0202501N001019999999N999999999-00241-00371100981ADDMA1999999100861MD1990071+9999REMSYN04801001 46/// /2501 11024 21037 30086 40098 50007=
0143010010999992018010915004+70933-008667FM-12+000999999V0201101N00601002401WN000900199-00141-00201100981ADDAY171021AY221021GF109991999999999999999999MA1999999100861MD1510021+9999MW1731REMSYN05401001 41/09 91106 11014 21020 30086 40098 55002 77372=
0093010010999992018010916004+70939-008669FM-12+001099999V0200881N0035199999999999999999-00121-00191100981ADDKA1010M-00111KA2010N-00141MA1999999100861MD1210021+9999OC100641OD190100721999REMSYN004BUFR
0089010010999992018010917004+70933-008667FM-12+000999999V0201001N008019999999N999999999-00041-00141100951ADDMA1999999100831MD1810031+9999REMSYN04801001 46/// /1008 11004 21014 30083 40095 58003=
0247010010999992018010918004+70933-008667FM-12+000999999V0201101N009019999999N008000199-00021-00091100951ADDAA112000831AY171021AY221021GA1081+002501061GE19MSL   +99999+99999GF108991081999002501999999KA1120M-00021MA1999999100831MD1510041+9999MW1101OD139901101999REMSYN08201001 11358 81109 11002 21009 30083 40095 55004 69982 71072 885// 333 11002 91111=
0089010010999992018010919004+70933-008667FM-12+000999999V0201001N008019999999N999999999+00031-00041100931ADDMA1999999100811MD1610051+9999REMSYN04801001 46/// /1008 10003 21004 30081 40093 56005=
0089010010999992018010920004+70933-008667FM-12+000999999V0201101N005019999999N999999999+00111-00051100981ADDMA1999999100861MD1310041+9999REMSYN04801001 46/// /1105 10011 21005 30086 40098 53004=
0089010010999992018010921004+70933-008667FM-12+000999999V0201101N007019999999N999999999+00171-00091100991ADDMA1999999100871MD1310041+9999REMSYN04801001 46/// /1107 10017 21009 30087 40099 53004=
0089010010999992018010922004+70933-008667FM-12+000999999V0201101N007019999999N999999999+00181-00051101021ADDMA1999999100901MD1110081+9999REMSYN04801001 46/// /1107 10018 21005 30090 40102 51008=
0093010010999992018010923004+70939-008669FM-12+001099999V0201131N0054199999999999999999+00171+00011101031ADDKA1010M+00191KA2010N+00171MA1999999100911MD1310051+9999OC100671OD190100681999REMSYN004BUFR
0228010010999992018011000004+70933-008667FM-12+000999999V0201101N007019999999N005000199+00181+00091101031ADDAA106000331AY161021AY221021GA1081+004501071GE19MSL   +99999+99999GF108991081999004501999999MA1999999100911MD1110041+9999MW1621OD139901101999REMSYN07601001 11450 81107 10018 20009 30091 40103 51004 69931 76262 886// 333 91111=
0089010010999992018011001004+70933-008667FM-12+000999999V0201101N007019999999N999999999+00141+00081101031ADDMA1999999100911MD1210011+9999REMSYN04801001 46/// /1107 10014 20008 30091 40103 52001=
0093010010999992018011002004+70939-008669FM-12+001099999V0201971N0035199999999999999999+00151+00111101061ADDKA1010M+00151KA2010N+00111MA1999999100941MD1310031+9999OC100811OD190100721999REMSYN004BUFR
0089010010999992018011003004+70933-008667FM-12+000999999V0202001N004019999999N999999999+00151+00081101091ADDMA1999999100971MD1310061+9999REMSYN04801001 46/// /2004 10015 20008 30097 40109 53006=
0089010010999992018011004004+70933-008667FM-12+000999999V0202001N004019999999N999999999+00201+00141101091ADDMA1999999100971MD1110071+9999REMSYN04801001 46/// /2004 10020 20014 30097 40109 51007=
0089010010999992018011005004+70933-008667FM-12+000999999V0202001N005019999999N999999999+00221+00101101101ADDMA1999999100981MD1210041+9999REMSYN04801001 46/// /2005 10022 20010 30098 40110 52004=
0293010010999992018011006004+70933-008667FM-12+000999999V0201901N004019999999N010000199+00221+00071101131ADDAA112000331AA224001131AJ199991999999999AY161021AY221021GA1081+004501061GE19MSL   +99999+99999GF108991081999004501999999IA1269KA1240N-00021MA1999999101011MD1210041+9999MW1021OD139900901999REMSYN09401001 11460 81904 10022 20007 30101 40113 52004 69932 70262 885// 333 21002 42999 70011 91109=
0089010010999992018011007004+70933-008667FM-12+000999999V0201301N005019999999N999999999+00191+00051101151ADDMA1999999101031MD1210061+9999REMSYN04801001 46/// /1305 10019 20005 30103 40115 52006=
0089010010999992018011008004+70933-008667FM-12+000999999V0201201N006019999999N999999999+00211+00061101161ADDMA1999999101041MD1210051+9999REMSYN04801001 46/// /1206 10021 20006 30104 40116 52005=
0187010010999992018011009004+70933-008667FM-12+000999999V0201101N006019999999N010000199+00211+00111101161ADDAY121021AY221021GA1071+008001061GE19MSL   +99999+99999GF107991071999008001999999MA1999999101041MD1990031+9999MW1021REMSYN06001001 41560 71106 10021 20011 30104 40116 50003 70222 875//=
0089010010999992018011010004+70933-008667FM-12+000999999V0201101N006019999999N999999999+00221+00111101191ADDMA1999999101071MD1310041+9999REMSYN04801001 46/// /1106 10022 20011 30107 40119 53004=
0089010010999992018011011004+70933-008667FM-12+000999999V0201101N006019999999N999999999+00181+00121101191ADDMA1999999101071MD1210031+9999REMSYN04801001 46/// /1106 10018 20012 30107 40119 52003=
0248010010999992018011012004+70933-008667FM-12+000999999V0201001N007019999999N007000199+00211+00161101181ADDAA106000091AY121021AY221021GA1081+002501071GE19MSL   +99999+99999GF108991081999002501999999MA1999999101061MD1990021+9999MW1101OD139900901999SA1-0041REMSYN08801001 11357 81007 10021 20016 30106 40118 50002 60001 71022 886// 222// 01004 333 91109=
0089010010999992018011013004+70933-008667FM-12+000999999V0201001N007019999999N999999999+00221+00171101161ADDMA1999999101041MD1710031+9999REMSYN04801001 46/// /1007 10022 20017 30104 40116 57003=
0089010010999992018011014004+70933-008667FM-12+000999999V0200901N003019999999N999999999+00191+00121101131ADDMA1999999101011MD1710061+9999REMSYN04801001 46/// /0903 10019 20012 30101 40113 57006=
0187010010999992018011015004+70933-008667FM-12+000999999V0200901N003019999999N010000199+00201+00131101111ADDAY151021AY221021GA1081+001501071GE19MSL   +99999+99999GF108991081999001501999999MA1999999100991MD1710071+9999MW1401REMSYN06001001 41260 80903 10020 20013 30099 40111 57007 74052 886//=
0089010010999992018011016004+70933-008667FM-12+000999999V0201001N006019999999N999999999+00211+00141101111ADDMA1999999100991MD1710051+9999REMSYN04801001 46/// /1006 10021 20014 30099 40111 57005=
0089010010999992018011017004+70933-008667FM-12+000999999V0201001N003019999999N999999999+00191+00131101091ADDMA1999999100971MD1710041+9999REMSYN04801001 46/// /1003 10019 20013 30097 40109 57004=
0266010010999992018011018004+70933-008667FM-12+000999999V0201101N006019999999N010000199+00231+00141101051ADDAA112000091AY151021AY221021GA1081+004501071GE19MSL   +99999+99999GF108991081999004501999999KA1120M+00271MA1999999100931MD1810061+9999MW1021OD139901001999REMSYN08201001 11460 81106 10023 20014 30093 40105 58006 69902 70252 886// 333 10027 91110=EQDQ01  00002PRCP12
0089010010999992018011019004+70933-008667FM-12+000999999V0201101N008019999999N999999999+00271+00171101021ADDMA1999999100901MD1710091+9999REMSYN04801001 46/// /1108 10027 20017 30090 40102 57009=
0089010010999992018011020004+70933-008667FM-12+000999999V0201101N009019999999N999999999+00301+00151101001ADDMA1999999100881MD1710091+9999REMSYN04801001 46/// /1109 10030 20015 30088 40100 57009=
0089010010999992018011021004+70933-008667FM-12+000999999V0201201N009019999999N999999999+00261+00141100981ADDMA1999999100861MD1710071+9999REMSYN04801001 46/// /1209 10026 20014 30086 40098 57007=
0089010010999992018011022004+70933-008667FM-12+000999999V0201201N008019999999N999999999+00241+00151100971ADDMA1999999100851MD1710051+9999REMSYN04801001 46/// /1208 10024 20015 30085 40097 57005=
0089010010999992018011023004+70933-008667FM-12+000999999V0201201N008019999999N999999999+00231+00161100931ADDMA1999999100811MD1710071+9999REMSYN04801001 46/// /1208 10023 20016 30081 40093 57007=
0228010010999992018011100004+70933-008667FM-12+000999999V0201201N007019999999N010000199+00201+00141100891ADDAA106000091AY121021AY221021GA1081+002501071GE19MSL   +99999+99999GF108991081999002501999999MA1999999100771MD1710081+9999MW1021OD139901201999REMSYN07601001 11360 81207 10020 20014 30077 40089 57008 60001 70222 886// 333 91112=
0089010010999992018011101004+70933-008667FM-12+000999999V0201201N006019999999N999999999+00191+00131100861ADDMA1999999100741MD1710111+9999REMSYN04801001 46/// /1206 10019 20013 30074 40086 57011=
0089010010999992018011102004+70933-008667FM-12+000999999V0201301N007019999999N999999999+00201+00151100781ADDMA1999999100661MD1810151+9999REMSYN04801001 46/// /1307 10020 20015 30066 40078 58015=
0089010010999992018011103004+70933-008667FM-12+000999999V0201201N008019999999N999999999+00231+00171100771ADDMA1999999100651MD1610131+9999REMSYN04801001 46/// /1208 10023 20017 30065 40077 56013=
0089010010999992018011104004+70933-008667FM-12+000999999V0201101N007019999999N999999999+00191+00131100721ADDMA1999999100601MD1610141+9999REMSYN04801001 46/// /1107 10019 20013 30060 40072 56014=
0089010010999992018011105004+70933-008667FM-12+000999999V0201301N006019999999N999999999+00211+00151100681ADDMA1999999100561MD1710101+9999REMSYN04801001 46/// /1306 10021 20015 30056 40068 57010=
0312010010999992018011106004+70933-008667FM-12+000999999V0201201N005019999999N003000199+00171+00111100651ADDAA112000091AA224000091AJ199991999999999AY121021AY221021GA1081+002501071GE19MSL   +99999+99999GF108991081999002501999999IA1269KA1240N+00171MA1999999100531MD1710121+9999MW1101OD139901101999REMSYN09401001 11330 81205 10017 20011 30053 40065 57012 60002 71022 886// 333 20017 42/// 79999 91111=EQDQ01  00002PRCP24
0089010010999992018011107004+70933-008667FM-12+000999999V0201401N005019999999N999999999+00171+00101100621ADDMA1999999100501MD1710091+9999REMSYN04801001 46/// /1405 10017 20010 30050 40062 57009=
0089010010999992018011108004+70933-008667FM-12+000999999V0201601N005019999999N999999999+00161+00081100641ADDMA1999999100521MD1510051+9999REMSYN04801001 46/// /1605 10016 20008 30052 40064 55005=
0187010010999992018011109004+70933-008667FM-12+000999999V0201701N005019999999N003500199+00131+00071100661ADDAY121021AY221021GA1081+002501071GE19MSL   +99999+99999GF108991081999002501999999MA1999999100541MD1310011+9999MW1101REMSYN06001001 41335 81705 10013 20007 30054 40066 53001 71022 886//=
0089010010999992018011110004+70933-008667FM-12+000999999V0202001N003019999999N999999999+00121+00071100721ADDMA1999999100601MD1310101+9999REMSYN04801001 46/// /2003 10012 20007 30060 40072 53010=
0089010010999992018011111004+70933-008667FM-12+000999999V0202001N005019999999N999999999+00141+00101100761ADDMA1999999100641MD1310131+9999REMSYN04801001 46/// /2005 10014 20010 30064 40076 53013=
0091010010999992018011112004+70933-008667FM-12+000999999V020999999999999999999999999999+99999+99999999999REMSYN08201001 11X03 92104 10011 20008 30065 40077 51011 69901 74554 222// 00000 333 91109=
0089010010999992018011113004+70933-008667FM-12+000999999V0202201N007019999999N999999999+00071+00041100851ADDMA1999999100731MD1310131+9999REMSYN04801001 46/// /2207 10007 20004 30073 40085 53013=
0089010010999992018011114004+70933-008667FM-12+000999999V0202101N007019999999N999999999+00071+00041100891ADDMA1999999100771MD1310131+9999REMSYN04801001 46/// /2107 10007 20004 30077 40089 53013=
0224010010999992018011115004+70939-008669FM-12+001099999V0202141N0028199999999000500199+00101+00071100951ADDAY151031AY241031GA1091+999999101GA2999+999999101GA3999+999999101GE19MSL   +99999+99999GF199999091999999999999999KA1010M+00091KA2010N+00071MA1999999100831MD1110171+9999MW1451OC100771OD190100821999UA19999999059REMSYN004BUFR
0089010010999992018011116004+70933-008667FM-12+000999999V0202301N002019999999N999999999+00101+00061100971ADDMA1999999100851MD1210121+9999REMSYN04801001 46/// /2302 10010 20006 30085 40097 52012=
0093010010999992018011117004+70939-008669FM-12+001099999V0202001N0041199999999999999999+00111+00071100981ADDKA1010M+00111KA2010N+00101MA1999999100861MD1110091+9999OC100541OD190100411999REMSYN004BUFR
0247010010999992018011118004+70933-008667FM-12+000999999V0201901N004019999999N004000199+00111+00051100991ADDAA112000091AY141021AY221021GA1081+004501071GE19MSL   +99999+99999GF108991081999004501999999KA1120M+00201MA1999999100871MD1210051+9999MW1101OD139901001999REMSYN08201001 11440 81904 10011 20005 30087 40099 52005 60002 71042 886// 333 10020 91110=
0085010010999992018011119004+70939-008669FM-12+001099999V0201641N0034199999999999999999+00111+00051101031ADDKA1010M+00121KA2010N+00101MA1999999100911MD1310061+9999OD190100431999REMSYN004BUFR
0093010010999992018011120004+70939-008669FM-12+001099999V0201751N0046199999999999999999+00111+00051101031ADDKA1010M+00131KA2010N+00111MA1999999100911MD1010061+9999OC100631OD190100471999REMSYN004BUFR
0093010010999992018011121004+70939-008669FM-12+001099999V0201911N0069199999999999999999+00021+00001101051ADDKA1010M+00111KA2010N+00031MA1999999100931MD1110061+9999OC100791OD190100751999REMSYN004BUFR
0093010010999992018011122004+70939-008669FM-12+001099999V0201951N0057199999999999999999+00051+00021101051ADDKA1010M+00041KA2010N+00031MA1999999100931MD1210021+9999OC100761OD190100701999REMSYN004BUFR
0093010010999992018011123004+70939-008669FM-12+001099999V0201781N0061199999999999999999+00061+00031101051ADDKA1010M+00061KA2010N+00041MA1999999100931MD1210021+9999OC100711OD190100781999REMSYN004BUFR
0079010010999992018011200004+70933-008667FM-12+000999999V020999999999999999999999999999+99999+99999999999REMSYN07001001 11X05 91507 10011 20008 30090 40102 58003 60001 74554 333 91109=
0093010010999992018011201004+70939-008669FM-12+001099999V0201851N0035199999999999999999+00111+00071101011ADDKA1010M+00121KA2010N+00101MA1999999100891MD1810031+9999OC100851OD190100671999REMSYN004BUFR
0093010010999992018011202004+70939-008669FM-12+001099999V0201911N0057199999999999999999+00161+00121100981ADDKA1010M+00161KA2010N+00091MA1999999100861MD1810071+9999OC100791OD190100581999REMSYN004BUFR
0089010010999992018011203004+70933-008667FM-12+000999999V0202101N003019999999N999999999+00191+00131100921ADDMA1999999100801MD1810101+9999REMSYN04801001 46/// /2103 10019 20013 30080 40092 58010=
0089010010999992018011204004+70933-008667FM-12+000999999V0201701N006019999999N999999999+00181+00121100831ADDMA1999999100711MD1810181+9999REMSYN04801001 46/// /1706 10018 20012 30071 40083 58018=
0093010010999992018011205004+70939-008669FM-12+001099999V0201611N0093199999999999999999+00211+00131100751ADDKA1010M+00211KA2010N+00171MA1999999100631MD1810221+9999OC101151OD190100931999REMSYN004BUFR
0293010010999992018011206004+70933-008667FM-12+000999999V0201601N011019999999N010000199+00231+00121100681ADDAA112000131AA224000131AJ199991999999999AY121021AY221021GA1081+002501071GE19MSL   +99999+99999GF108991081999002501999999IA1269KA1240N+00031MA1999999100561MD1610241+9999MW1511OD139901401999REMSYN09401001 11360 81611 10023 20012 30056 40068 56024 69912 75122 886// 333 20003 42999 70001 91114=
0093010010999992018011207004+70939-008669FM-12+001099999V0201611N0113199999999999999999+00221+00121100581ADDKA1010M+00231KA2010N+00221MA1999999100461MD1810251+9999OC101421OD190101131999REMSYN004BUFR
0093010010999992018011208004+70939-008669FM-12+001099999V0201641N0130199999999999999999+00251+00151100491ADDKA1010M+00241KA2010N+00221MA1999999100371MD1810271+9999OC101681OD190101351999REMSYN004BUFR
0187010010999992018011209004+70933-008667FM-12+000999999V0201701N013019999999N010000199+00241+00131100431ADDAY121021AY221021GA1081+004501071GE19MSL   +99999+99999GF108991081999004501999999MA1999999100311MD1710251+9999MW1611REMSYN06001001 41460 81713 10024 20013 30031 40043 57025 76122 886//=
0093010010999992018011210004+70939-008669FM-12+001099999V0201671N0139199999999999999999+00251+00151100371ADDKA1010M+00251KA2010N+00231MA1999999100251MD1810211+9999OC101721OD190101431999REMSYN004BUFR
0089010010999992018011211004+70933-008667FM-12+000999999V0201701N014019999999N999999999+00251+00151100291ADDMA1999999100171MD1810191+9999REMSYN04801001 46/// /1714 10025 20015 30017 40029 58019=
0235010010999992018011212004+70939-008669FM-12+001099999V0201691N01331001001C9005000199+00251+00141100211ADDAA106001231AY161061AY261061GA1081+001001071GA2999+999999101GA3999+999999101GE19MSL   +99999+99999GF108991081999001001999999KA1010M+00251KA2010N+00241MA1999999100091MD1810221+9999MW1611OC101731OD190601431999UA19999999059REMSYN004BUFR
0039010010999992018011213004+70933-008667FM-12+000999999V0201701N014019999999N999999999+00251+00181999999REMSYN03001001 46/// /1714 10025 20018=
0064010010999992018011214004+70939-008669FM-12+001099999V0201861N0127199999999999999999+00271+00151999999ADDKA1010M+00281KA2010N+00261OC101561OD190101281999REMSYN004BUFR
0140010010999992018011215004+70933-008667FM-12+000999999V0201901N013019999999N010000199+00261+00131999999ADDAY161021AY221021GA1081+002501071GE19MSL   +99999+99999GF108991081999002501999999MW1021REMSYN04201001 41360 81913 10026 20013 70262 886//=
0039010010999992018011216004+70933-008667FM-12+000999999V0201801N012019999999N999999999+00261+00131999999REMSYN03001001 46/// /1812 10026 20013=
0064010010999992018011217004+70939-008669FM-12+001099999V0201801N0129199999999999999999+00261+00141999999ADDKA1010M+00271KA2010N+00251OC101531OD190101341999REMSYN004BUFR
0221010010999992018011218004+70939-008669FM-12+001099999V0201801N01291002001C9005000199+00261+00141099941ADDAA112002031AY161061AY221061GA1081+002001071GA2999+999999101GA3999+999999101GE19MSL   +99999+99999GF108991081999002001999999KA1120M+00281KA2120N+00221MA1999999099821MW1101OC101591OD190601431999UA19999999069REMSYN004BUFR
0079010010999992018011219004+70939-008669FM-12+001099999V0201801N0126199999999999999999+00251+00171099921ADDKA1010M+00271KA2010N+00241MA1999999099801OC101531OD190101301999REMSYN004BUFR
0079010010999992018011220004+70939-008669FM-12+001099999V0201761N0139199999999999999999+00271+00181099821ADDKA1010M+00281KA2010N+00241MA1999999099701OC101731OD190101391999REMSYN004BUFR
0093010010999992018011221004+70939-008669FM-12+001099999V0201781N0132199999999999999999+00251+00171099761ADDKA1010M+00281KA2010N+00251MA1999999099641MD1810181+9999OC101671OD190101391999REMSYN004BUFR
0093010010999992018011222004+70939-008669FM-12+001099999V0201761N0131199999999999999999+00251+00181099671ADDKA1010M+00251KA2010N+00241MA1999999099551MD1710241+9999OC101621OD190101321999REMSYN004BUFR
0093010010999992018011223004+70939-008669FM-12+001099999V0201761N0126199999999999999999+00251+00181099591ADDKA1010M+00261KA2010N+00231MA1999999099471MD1810241+9999OC101541OD190101351999REMSYN004BUFR
0235010010999992018011300004+70939-008669FM-12+001099999V0201821N01411000501C9002000199+00261+00191099511ADDAA106000531AY161061AY251061GA1081+000501071GA2999+999999101GA3999+999999101GE19MSL   +99999+99999GF108991081999000501999999KA1010M+00271KA2010N+00231MA1999999099391MD1710251+9999MW1591OC101791OD190601421999UA19999999069REMSYN004BUFR
0093010010999992018011301004+70939-008669FM-12+001099999V0201841N0143199999999999999999+00271+00201099461ADDKA1010M+00281KA2010N+00261MA1999999099341MD1710221+9999OC101791OD190101471999REMSYN004BUFR
0093010010999992018011302004+70939-008669FM-12+001099999V0201891N0143199999999999999999+00271+00191099411ADDKA1010M+00291KA2010N+00261MA1999999099291MD1710171+9999OC101801OD190101441999REMSYN004BUFR
0093010010999992018011303004+70939-008669FM-12+001099999V0201881N0127199999999999999999+00261+00181099381ADDKA1010M+00291KA2010N+00261MA1999999099261MD1710131+9999OC101521OD190101531999REMSYN004BUFR
0093010010999992018011304004+70939-008669FM-12+001099999V0201871N0132199999999999999999+00271+00191099301ADDKA1010M+00281KA2010N+00251MA1999999099181MD1810151+9999OC101701OD190101341999REMSYN004BUFR
0093010010999992018011305004+70939-008669FM-12+001099999V0201881N0134199999999999999999+00271+00201099231ADDKA1010M+00281KA2010N+00261MA1999999099111MD1810181+9999OC101721OD190101341999REMSYN004BUFR
0252010010999992018011306004+70939-008669FM-12+001099999V0201841N01411001001C9004000199+00271+00191099211ADDAA112004531AA224006531AY161061AY251061GA1081+001001071GA2999+999999101GA3999+999999101GE19MSL   +99999+99999GF108991081999001001999999IA1199KA1120M+00291KA2120N+00231MA1999999099091MD1610171+9999MW1631OC101721OD190601531999UA19999999069REMSYN004BUFR
0093010010999992018011307004+70939-008669FM-12+001099999V0201881N0133199999999999999999+00271+00211099171ADDKA1010M+00281KA2010N+00251MA1999999099051MD1710131+9999OC101611OD190101421999REMSYN004BUFR
0093010010999992018011308004+70939-008669FM-12+001099999V0201891N0127199999999999999999+00261+00211099161ADDKA1010M+00261KA2010N+00251MA1999999099041MD1710071+9999OC101521OD190101331999REMSYN004BUFR
0224010010999992018011309004+70939-008669FM-12+001099999V0201951N0108199999999000900199+00221+00181099141ADDAY161031AY251031GA1091+999999101GA2999+999999101GA3999+999999101GE19MSL   +99999+99999GF199999091999999999999999KA1010M+00251KA2010N+00221MA1999999099021MD1710071+9999MW1591OC101281OD190101421999UA19999999069REMSYN004BUFR
0093010010999992018011310004+70939-008669FM-12+001099999V0202001N0091199999999999999999+00201+00151099131ADDKA1010M+00241KA2010N+00191MA1999999099011MD1710041+9999OC101091OD190101121999REMSYN004BUFR
0093010010999992018011311004+70939-008669FM-12+001099999V0202011N0078199999999999999999+00201+00161099171ADDKA1010M+00211KA2010N+00181MA1999999099051MD1310011+9999OC100931OD190100891999REMSYN004BUFR
0235010010999992018011312004+70939-008669FM-12+001099999V0202091N0043199999999000500199+00161+00111099271ADDAA106001531AY161061AY251061GA1091+999999101GA2999+999999101GA3999+999999101GE19MSL   +99999+99999GF199999091999999999999999KA1010M+00211KA2010N+00161MA1999999099151MD1310131+9999MW1471OC100541OD190601421999UA19999999069REMSYN004BUFR
0093010010999992018011313004+70939-008669FM-12+001099999V0201961N0054199999999999999999+00151+00091099371ADDKA1010M+00171KA2010N+00151MA1999999099251MD1310251+9999OC100781OD190100581999REMSYN004BUFR
0093010010999992018011314004+70939-008669FM-12+001099999V0200371N0013199999999999999999+00151+00061099461ADDKA1010M+00151KA2010N+00141MA1999999099341MD1210291+9999OC100711OD190100551999REMSYN004BUFR
0187010010999992018011315004+70933-008667FM-12+000999999V0202001N005019999999N002000199+00131+00061099541ADDAY151021AY241021GA1061+001501071GE19MSL   +99999+99999GF106991061999001501999999MA1999999099421MD1210281+9999MW1101REMSYN06001001 41220 62005 10013 20006 39942 49954 52028 71054 86600=
0089010010999992018011316004+70933-008667FM-12+000999999V0201901N005019999999N999999999+00141+00071099551ADDMA1999999099431MD1110171+9999REMSYN04801001 46/// /1905 10014 20007 39943 49955 51017=
0089010010999992018011317004+70933-008667FM-12+000999999V0201701N004019999999N999999999+00141+00071099531ADDMA1999999099411MD1990061+9999REMSYN04801001 46/// /1704 10014 20007 39941 49953 50006=
0247010010999992018011318004+70933-008667FM-12+000999999V0201801N007019999999N005000199+00121+00061099481ADDAA112002031AY151021AY241021GA1081+001501071GE19MSL   +99999+99999GF108991081999001501999999KA1120M+00281MA1999999099361MD1810061+9999MW1101OD139900901999REMSYN08201001 11250 81807 10012 20006 39936 49948 58006 60022 71054 886// 333 10028 91109=
0089010010999992018011319004+70933-008667FM-12+000999999V0201701N007019999999N999999999+00101+00061099411ADDMA1999999099291MD1810141+9999REMSYN04801001 46/// /1707 10010 20006 39929 49941 58014=
0089010010999992018011320004+70933-008667FM-12+000999999V0201701N008019999999N999999999+00151+00081099311ADDMA1999999099191MD1810211+9999REMSYN04801001 46/// /1708 10015 20008 39919 49931 58021=
0089010010999992018011321004+70933-008667FM-12+000999999V0201801N007019999999N999999999+00141+00071099211ADDMA1999999099091MD1810271+9999REMSYN04801001 46/// /1807 10014 20007 39909 49921 58027=
0089010010999992018011322004+70933-008667FM-12+000999999V0202001N008019999999N999999999+00151+00051099121ADDMA1999999099001MD1810281+9999REMSYN04801001 46/// /2008 10015 20005 39900 49912 58028=
0089010010999992018011323004+70933-008667FM-12+000999999V0201701N008019999999N999999999+00161+00081099071ADDMA1999999098951MD1710241+9999REMSYN04801001 46/// /1708 10016 20008 39895 49907 57024=
0247010010999992018011400004+70933-008667FM-12+000999999V0201601N009019999999N006000199+00161+00091098981ADDAA106000091AY151021AY221021GA1081+002501071GE19MSL   +99999+99999GF108991081999002501999999MA1999999098861MD1810231+9999MW1101OD139901401999REMSYN07601001 11356 81609 10016 20009 39886 49898 58023 69901 71052 886// 333 91114=EQDQ01  00002PRCP06
0089010010999992018011401004+70933-008667FM-12+000999999V0201601N009019999999N999999999+00161+00091098851ADDMA1999999098731MD1810271+9999REMSYN04801001 46/// /1609 10016 20009 39873 49885 58027=
0089010010999992018011402004+70933-008667FM-12+000999999V0201701N009019999999N999999999+00161+00091098741ADDMA1999999098621MD1810331+9999REMSYN04801001 46/// /1709 10016 20009 39862 49874 58033=
0089010010999992018011403004+70933-008667FM-12+000999999V0201601N007019999999N999999999+00141+00071098581ADDMA1999999098471MD1810391+9999REMSYN04801001 46/// /1607 10014 20007 39847 49858 58039=
0089010010999992018011404004+70933-008667FM-12+000999999V0201601N005019999999N999999999+00151+00081098411ADDMA1999999098301MD1810441+9999REMSYN04801001 46/// /1605 10015 20008 39830 49841 58044=
0093010010999992018011405004+70939-008669FM-12+001099999V0201641N0055199999999999999999+00151+00101098201ADDKA1010M+00161KA2010N+00141MA1999999098091MD1810531+9999OC100751OD190100551999REMSYN004BUFR
0252010010999992018011406004+70939-008669FM-12+001099999V0201101N0056199999999000300199+00111+00071098001ADDAA112999999AA224001531AY141061AY221061GA1091+999999101GA2999+999999101GA3999+999999101GE19MSL   +99999+99999GF199999091999999999999999IA1179KA1120M+00181KA2120N+00081MA1999999097891MD1810591+9999MW1451OC100701OD190601021999UA19999999069REMSYN004BUFR
0093010010999992018011407004+70939-008669FM-12+001099999V0201371N0066199999999999999999+00161+00121097841ADDKA1010M+00161KA2010N+00111MA1999999097731MD1810561+9999OC100791OD190100691999REMSYN004BUFR
0089010010999992018011408004+70933-008667FM-12+000999999V0201201N004019999999N999999999+00161+00121097631ADDMA1999999097521MD1810571+9999REMSYN04801001 46/// /1204 10016 20012 39752 49763 58057=
0187010010999992018011409004+70933-008667FM-12+000999999V0201501N004019999999N005000199+00161+00101097421ADDAY161021AY241021GA1081+004501071GE19MSL   +99999+99999GF108991081999004501999999MA1999999097311MD1810571+9999MW1621REMSYN06001001 41450 81504 10016 20010 39731 49742 58057 76264 886//=
0089010010999992018011410004+70933-008667FM-12+000999999V0201401N007019999999N999999999+00201+00141097241ADDMA1999999097131MD1710601+9999REMSYN04801001 46/// /1407 10020 20014 39713 49724 57060=
0089010010999992018011411004+70933-008667FM-12+000999999V0201401N007019999999N999999999+00221+00161097061ADDMA1999999096951MD1810581+9999REMSYN04801001 46/// /1407 10022 20016 39695 49706 58058=
0264010010999992018011412004+70933-008667FM-12+000999999V0201201N008019999999N010000199+00251+00181096801ADDAA106002031AY161021AY241021GA1041+002501071GA2999+999999051GE19MSL   +99999+99999GF108991041999002501999999MA1999999096691MD1810631+9999MW1611OD139901201999SA1+0091REMSYN08801001 11360 81208 10025 20018 39669 49680 58063 60021 76164 84620 222// 00009 333 91112=
0089010010999992018011413004+70933-008667FM-12+000999999V0201301N010019999999N999999999+00261+00151096541ADDMA1999999096431MD1810701+9999REMSYN04801001 46/// /1310 10026 20015 39643 49654 58070=
0089010010999992018011414004+70933-008667FM-12+000999999V0201301N010019999999N999999999+00251+00141096221ADDMA1999999096111MD1810841+9999REMSYN04801001 46/// /1310 10025 20014 39611 49622 58084=
0187010010999992018011415004+70933-008667FM-12+000999999V0201301N012019999999N005000199+00251+00141095891ADDAY161021AY221021GA1081+002501071GE19MSL   +99999+99999GF108991081999002501999999MA1999999095781MD1810901+9999MW1631REMSYN06001001 41350 81312 10025 20014 39578 49589 58090 76362 886//=
0089010010999992018011416004+70933-008667FM-12+000999999V0201701N011019999999N999999999+00211+00061095761ADDMA1999999095651MD1610781+9999REMSYN04801001 46/// /1711 10021 20006 39565 49576 56078=
0093010010999992018011417004+70939-008669FM-12+001099999V0201741N0109199999999999999999+00201-00041095752ADDKA1010M+00211KA2010N+00181MA1999999095642MD1610461+9999OC101431OD190101131999REMSYN004BUFR
0247010010999992018011418004+70933-008667FM-12+000999999V0201801N011019999999N005000199+00121-00051095832ADDAA112004031AY161021AY221021GA1081+002501071GE19MSL   +99999+99999GF108991081999002501999999KA1120M+00291MA1999999095722MD1510061+9999MW1601OD139901901999REMSYN08201001 11350 81811 10012 21005 39572 49583 55006 60042 76062 886// 333 10029 91119=
0093010010999992018011419004+70939-008669FM-12+001099999V0201771N0089199999999999999999+00101-00061095901ADDKA1010M+00121KA2010N+00091MA1999999095791MD1310141+9999OC101251OD190101111999REMSYN004BUFR
0093010010999992018011420004+70939-008669FM-12+001099999V0201651N0064199999999999999999+00071-00231095951ADDKA1010M+00111KA2010N+00081MA1999999095841MD1110201+9999OC100751OD190100901999REMSYN004BUFR
0089010010999992018011421004+70933-008667FM-12+000999999V0201501N007019999999N999999999-00051-00141095971ADDMA1999999095861MD1110141+9999REMSYN04801001 46/// /1507 11005 21014 39586 49597 51014=
0093010010999992018011422004+70939-008669FM-12+001099999V0201571N0109199999999999999999+00051-00251096021ADDKA1010M+00041KA2010N-00051MA1999999095911MD1110121+9999OC101431OD190101181999REMSYN004BUFR
0093010010999992018011423004+70939-008669FM-12+001099999V0201611N0092199999999999999999+00051-00291096021ADDKA1010M+00041KA2010N+00031MA1999999095911MD1110071+9999OC101211OD190101101999REMSYN004BUFR
0228010010999992018011500004+70933-008667FM-12+000999999V0201501N007019999999N010000199+00031-00311096021ADDAA106000021AY171021AY221021GA1081+004501071GE19MSL   +99999+99999GF108991081999004501999999MA1999999095911MD1990041+9999MW1021OD139901701999REMSYN07601001 11460 81507 10003 21031 39591 49602 50004 69901 70272 886// 333 91117=
0108010010999992018011501004+70933-008667FM-12+000999999V0201501N007019999999N999999999+00001-00181096031ADDMA1999999095921MD1290019+9999REMSYN04801001 46/// /1507 10000 21018 39592 49603 54001=EQDQ01.1    3APC3  
0089010010999992018011502004+70933-008667FM-12+000999999V0201301N007019999999N999999999+00001-00121096051ADDMA1999999095941MD1310041+9999REMSYN04801001 46/// /1307 10000 21012 39594 49605 53004=
0089010010999992018011503004+70933-008667FM-12+000999999V0201901N006019999999N999999999-00071-00141096051ADDMA1999999095941MD1990031+9999REMSYN04801001 46/// /1906 11007 21014 39594 49605 50003=
0089010010999992018011504004+70933-008667FM-12+000999999V0201301N003019999999N999999999-00091-00181096031ADDMA1999999095921MD1990011+9999REMSYN04801001 46/// /1303 11009 21018 39592 49603 50001=
0104010010999992018011505004+70939-008669FM-12+001099999V0201311N0020199999999999999999-00071-00161096051ADDKA1010M-00071KA2010N-00091MA1999999095941MD1410009+9999OD190100271999REMSYN004BUFREQDQ01.1    3APC3  
0293010010999992018011506004+70933-008667FM-12+000999999V0201101N005012200019N020000199+00021-00171096071ADDAA112000131AA224004431AJ199991999999999AY171021AY221021GA1031+008001071GE19MSL   +99999+99999GF103991031999008001999999IA1179KA1240N-00101MA1999999095961MD1310021+9999MW1021OD139901401999REMSYN09401001 11570 31105 10002 21017 39596 49607 53002 69912 70272 83600 333 21010 40/// 70044 91114=
0089010010999992018011507004+70933-008667FM-12+000999999V0201101N006019999999N999999999+00021-00171096071ADDMA1999999095961MD1210041+9999REMSYN04801001 46/// /1106 10002 21017 39596 49607 52004=
0089010010999992018011508004+70933-008667FM-12+000999999V0200901N006019999999N999999999+00021-00171096121ADDMA1999999096011MD1310081+9999REMSYN04801001 46/// /0906 10002 21017 39601 49612 53008=
0187010010999992018011509004+70933-008667FM-12+000999999V0201001N006012200019N015000199+00021-00131096141ADDAY121021AY221021GA1041+004501071GE19MSL   +99999+99999GF104991041999004501999999MA1999999096031MD1310071+9999MW1021REMSYN06001001 41465 41006 10002 21013 39603 49614 53007 70222 84600=
0089010010999992018011510004+70933-008667FM-12+000999999V0201001N006019999999N999999999+00051-00111096181ADDMA1999999096071MD1210111+9999REMSYN04801001 46/// /1006 10005 21011 39607 49618 52011=
0089010010999992018011511004+70933-008667FM-12+000999999V0201001N004019999999N999999999+00051-00161096171ADDMA1999999096061MD1990051+9999REMSYN04801001 46/// /1004 10005 21016 39606 49617 50005=
0248010010999992018011512004+70933-008667FM-12+000999999V0200501N004019999999N010000199+00021-00231096151ADDAA106000091AY121021AY221021GA1081+004501061GE19MSL   +99999+99999GF108991081999004501999999MA1999999096041MD1990011+9999MW1021OD139900801999SA1+0081REMSYN08801001 11460 80504 10002 21023 39604 49615 50001 60001 70222 885// 222// 00008 333 91108=
0089010010999992018011513004+70933-008667FM-12+000999999V0200801N005019999999N999999999-00031-00121096141ADDMA1999999096031MD1710041+9999REMSYN04801001 46/// /0805 11003 21012 39603 49614 57004=
0089010010999992018011514004+70933-008667FM-12+000999999V0201601N005019999999N999999999-00031-00101096141ADDMA1999999096031MD1510031+9999REMSYN04801001 46/// /1605 11003 21010 39603 49614 55003=
0187010010999992018011515004+70933-008667FM-12+000999999V0201101N003019999999N002000199-00011-00081096131ADDAY171021AY221021GA1071+002501061GE19MSL   +99999+99999GF107991071999002501999999MA1999999096021MD1510021+9999MW1701REMSYN06001001 41320 71103 11001 21008 39602 49613 55002 77072 875//=
0089010010999992018011516004+70933-008667FM-12+000999999V0201201N007019999999N999999999-00011-00111096161ADDMA1999999096051MD1310031+9999REMSYN04801001 46/// /1207 11001 21011 39605 49616 53003=
0089010010999992018011517004+70933-008667FM-12+000999999V0201201N007019999999N999999999-00091-00141096191ADDMA1999999096081MD1310051+9999REMSYN04801001 46/// /1207 11009 21014 39608 49619 53005=
0247010010999992018011518004+70933-008667FM-12+000999999V0201001N006019999999N010000199-00021-00101096261ADDAA112000731AY171021AY221021GA1081+002501061GE19MSL   +99999+99999GF108991081999002501999999KA1120M+00061MA1999999096151MD1310131+9999MW1021OD139901301999REMSYN08201001 11360 81006 11002 21010 39615 49626 53013 69972 70272 885// 333 10006 91113=
0089010010999992018011519004+70933-008667FM-12+000999999V0201001N006019999999N999999999+00021-00101096301ADDMA1999999096191MD1310141+9999REMSYN04801001 46/// /1006 10002 21010 39619 49630 53014=
0093010010999992018011520004+70939-008669FM-12+001099999V0201231N0069199999999999999999-00051-00161096361ADDKA1010M+00011KA2010N-00071MA1999999096251MD1310171+9999OC100841OD190100861999REMSYN004BUFR
0089010010999992018011521004+70933-008667FM-12+000999999V0201101N005019999999N999999999-00031-00131096441ADDMA1999999096331MD1310181+9999REMSYN04801001 46/// /1105 11003 21013 39633 49644 53018=
0089010010999992018011522004+70933-008667FM-12+000999999V0200901N006019999999N999999999+00021-00131096491ADDMA1999999096381MD1210191+9999REMSYN04801001 46/// /0906 10002 21013 39638 49649 52019=
0089010010999992018011523004+70933-008667FM-12+000999999V0201101N003019999999N999999999+00001-00091096511ADDMA1999999096401MD1110151+9999REMSYN04801001 46/// /1103 10000 21009 39640 49651 51015=
0228010010999992018011600004+70933-008667FM-12+000999999V0200901N009019999999N004000199+00041-00081096551ADDAA106000021AY171021AY221021GA1081+002501071GE19MSL   +99999+99999GF108991081999002501999999MA1999999096441MD1210111+9999MW1701OD139901101999REMSYN07601001 11340 80909 10004 21008 39644 49655 52011 69901 77072 886// 333 91111=
0089010010999992018011601004+70933-008667FM-12+000999999V0200901N003019999999N999999999-00011-00081096591ADDMA1999999096481MD1310101+9999REMSYN04801001 46/// /0903 11001 21008 39648 49659 53010=
0089010010999992018011602004+70933-008667FM-12+000999999V0200801N007019999999N999999999+00051-00051096591ADDMA1999999096481MD1990071+9999REMSYN04801001 46/// /0807 10005 21005 39648 49659 50007=
0089010010999992018011603004+70933-008667FM-12+000999999V0200801N007019999999N999999999+00061-00081096591ADDMA1999999096481MD1990041+9999REMSYN04801001 46/// /0807 10006 21008 39648 49659 50004=
0108010010999992018011604004+70933-008667FM-12+000999999V0200801N007019999999N999999999+00111-00061096591ADDMA1999999096481MD1410009+9999REMSYN04801001 46/// /0807 10011 21006 39648 49659 54001=EQDQ01.1    3APC3  
0089010010999992018011605004+70933-008667FM-12+000999999V0200801N004019999999N999999999+00081-00031096601ADDMA1999999096491MD1210021+9999REMSYN04801001 46/// /0804 10008 21003 39649 49660 52002=
0287010010999992018011606004+70933-008667FM-12+000999999V0200801N004019999999N004000199+00081-00011096651ADDAA112000531AA224001231AJ199991999999999AY171021AY221021GA1081+002501061GE19MSL   +99999+99999GF108991081999002501999999IA1249KA1240N-00071MA1999999096541MD1310071+9999OD139901301999REMSYN09401001 11340 80804 10008 21001 39654 49665 53007 69952 7//72 885// 333 21007 44999 70012 91113=
0089010010999992018011607004+70933-008667FM-12+000999999V0200701N006019999999N999999999+00151+00061096681ADDMA1999999096571MD1310091+9999REMSYN04801001 46/// /0706 10015 20006 39657 49668 53009=
0089010010999992018011608004+70933-008667FM-12+000999999V0200701N008019999999N999999999+00181+00061096711ADDMA1999999096601MD1210111+9999REMSYN04801001 46/// /0708 10018 20006 39660 49671 52011=
0187010010999992018011609004+70933-008667FM-12+000999999V0200801N006019999999N004000199+00181+00071096751ADDAY171021AY221021GA1081+002501071GE19MSL   +99999+99999GF108991081999002501999999MA1999999096641MD1310101+9999MW1101REMSYN06001001 41340 80806 10018 20007 39664 49675 53010 71072 886//=
0089010010999992018011610004+70933-008667FM-12+000999999V0200901N008019999999N999999999+00141+00031096841ADDMA1999999096731MD1310161+9999REMSYN04801001 46/// /0908 10014 20003 39673 49684 53016=
0089010010999992018011611004+70933-008667FM-12+000999999V0200801N007019999999N999999999+00171+00051096881ADDMA1999999096771MD1310171+9999REMSYN04801001 46/// /0807 10017 20005 39677 49688 53017=
0248010010999992018011612004+70933-008667FM-12+000999999V0201101N006019999999N010000199+00161+00061096921ADDAA106002031AY181021AY221021GA1071+002501061GE19MSL   +99999+99999GF107991071999002501999999MA1999999096811MD1110171+9999MW1261OD139901201999SA1+0051REMSYN08801001 11360 71106 10016 20006 39681 49692 51017 60021 72682 875// 222// 00005 333 91112=
0089010010999992018011613004+70933-008667FM-12+000999999V0200801N007019999999N999999999+00171+00031096951ADDMA1999999096841MD1310121+9999REMSYN04801001 46/// /0807 10017 20003 39684 49695 53012=
0089010010999992018011614004+70933-008667FM-12+000999999V0200801N005019999999N999999999+00121+00021097051ADDMA1999999096941MD1310171+9999REMSYN04801001 46/// /0805 10012 20002 39694 49705 53017=
0187010010999992018011615004+70933-008667FM-12+000999999V0200701N003019999999N020000199+00141+00041097091ADDAY181021AY221021GA1071+002501081GE19MSL   +99999+99999GF107991071999002501999999MA1999999096981MD1310171+9999MW1021REMSYN06001001 41370 70703 10014 20004 39698 49709 53017 70282 878//=
0089010010999992018011616004+70933-008667FM-12+000999999V0200801N006019999999N999999999+00171+00051097161ADDMA1999999097051MD1310211+9999REMSYN04801001 46/// /0806 10017 20005 39705 49716 53021=
0093010010999992018011617004+70939-008669FM-12+001099999V0200801N0048199999999999999999+00161+00051097251ADDKA1010M+00181KA2010N+00161MA1999999097141MD1310201+9999OC100631OD190100631999REMSYN004BUFR
0247010010999992018011618004+70933-008667FM-12+000999999V0200101N001019999999N008000199+00141+00021097361ADDAA112004031AY181021AY221021GA1081+004501071GE19MSL   +99999+99999GF108991081999004501999999KA1120M+00211MA1999999097251MD1310271+9999MW1101OD139901001999REMSYN08201001 11458 80101 10014 20002 39725 49736 53027 60042 71082 886// 333 10021 91110=
0085010010999992018011619004+70939-008669FM-12+001099999V0200461N0020199999999999999999+00151+00021097471ADDKA1010M+00141KA2010N+00131MA1999999097361MD1310311+9999OD190100201999REMSYN004BUFR
0089010010999992018011620004+70933-008667FM-12+000999999V0203601N001019999999N999999999+00131+00011097551ADDMA1999999097441MD1310301+9999REMSYN04801001 46/// /3601 10013 20001 39744 49755 53030=
0089010010999992018011621004+70933-008667FM-12+000999999V0200301N001019999999N999999999+00111-00021097631ADDMA1999999097521MD1210271+9999REMSYN04801001 46/// /0301 10011 21002 39752 49763 52027=
0089010010999992018011622004+70933-008667FM-12+000999999V0202201N002019999999N999999999+00051-00061097681ADDMA1999999097571MD1210211+9999REMSYN04801001 46/// /2202 10005 21006 39757 49768 52021=
0089010010999992018011623004+70933-008667FM-12+000999999V0200801N001019999999N999999999+00101-00011097681ADDMA1999999097571MD1110131+9999REMSYN04801001 46/// /0801 10010 21001 39757 49768 51013=
0228010010999992018011700004+70933-008667FM-12+000999999V0200601N002019999999N006000199+00141+00011097741ADDAA106000131AY161021AY251021GA1081+004501071GE19MSL   +99999+99999GF108991081999004501999999MA1999999097631MD1310111+9999MW1601OD139900701999REMSYN07601001 11456 80602 10014 20001 39763 49774 53011 69911 76065 886// 333 91107=
0089010010999992018011701004+70933-008667FM-12+000999999V0200301N002019999999N999999999+00111+00001097791ADDMA1999999097681MD1310111+9999REMSYN04801001 46/// /0302 10011 20000 39768 49779 53011=
0089010010999992018011702004+70933-008667FM-12+000999999V0200701N009019999999N999999999+00211+00051097811ADDMA1999999097701MD1210121+9999REMSYN04801001 46/// /0709 10021 20005 39770 49781 52012=
0089010010999992018011703004+70933-008667FM-12+000999999V0200701N008019999999N999999999+00251+00091097831ADDMA1999999097721MD1210091+9999REMSYN04801001 46/// /0708 10025 20009 39772 49783 52009=
0089010010999992018011704004+70933-008667FM-12+000999999V0200701N009019999999N999999999+00281+00091097861ADDMA1999999097751MD1210071+9999REMSYN04801001 46/// /0709 10028 20009 39775 49786 52007=
0089010010999992018011705004+70933-008667FM-12+000999999V0200701N009019999999N999999999+00281+00071097901ADDMA1999999097791MD1210101+9999REMSYN04801001 46/// /0709 10028 20007 39779 49790 52010=
0293010010999992018011706004+70933-008667FM-12+000999999V0200501N005019999999N008000199+00231+00061097961ADDAA112004031AA224007231AJ199991999999999AY171021AY261021GA1081+004501061GE19MSL   +99999+99999GF108991081999004501999999IA1269KA1240N+00051MA1999999097851MD1310141+9999MW1101OD139901301999REMSYN09401001 11458 80505 10023 20006 39785 49796 53014 60042 71076 885// 333 20005 42999 70072 91113=
0089010010999992018011707004+70933-008667FM-12+000999999V0200701N009019999999N999999999+00251+00081097991ADDMA1999999097881MD1210131+9999REMSYN04801001 46/// /0709 10025 20008 39788 49799 52013=
0093010010999992018011708004+70939-008669FM-12+001099999V0200691N0103199999999999999999+00251+00081098061ADDKA1010M+00261KA2010N+00231MA1999999097951MD1310161+9999OC101301OD190101031999REMSYN004BUFR
0224010010999992018011709004+70939-008669FM-12+001099999V0200671N00821003001C9010000199+00261+00091098091ADDAY161031AY251031GA1081+003001071GA2999+999999101GA3999+999999101GE19MSL   +99999+99999GF108991081999003001999999KA1010M+00281KA2010N+00241MA1999999097981MD1210131+9999MW1601OC101201OD190101031999UA19999999069REMSYN004BUFR
0089010010999992018011710004+70933-008667FM-12+000999999V0200701N010019999999N999999999+00261+00071098131ADDMA1999999098021MD1210141+9999REMSYN04801001 46/// /0710 10026 20007 39802 49813 52014=
0093010010999992018011711004+70939-008669FM-12+001099999V0200611N0091199999999999999999+00251+00061098151ADDKA1010M+00271KA2010N+00251MA1999999098041MD1210101+9999OC101211OD190101141999REMSYN004BUFR
0248010010999992018011712004+70933-008667FM-12+000999999V0200601N009019999999N015000199+00251+00071098181ADDAA106000231AY161021AY251021GA1081+004501071GE19MSL   +99999+99999GF108991081999004501999999MA1999999098071MD1210091+9999MW1601OD139901501999SA1+0071REMSYN08801001 11465 80609 10025 20007 39807 49818 52009 69921 76065 886// 222// 00007 333 91115=
0089010010999992018011713004+70933-008667FM-12+000999999V0200501N010019999999N999999999+00321+00081098201ADDMA1999999098091MD1210081+9999REMSYN04801001 46/// /0510 10032 20008 39809 49820 52008=
0089010010999992018011714004+70933-008667FM-12+000999999V0200701N011019999999N999999999+00301+00081098231ADDMA1999999098121MD1210081+9999REMSYN04801001 46/// /0711 10030 20008 39812 49823 52008=
0187010010999992018011715004+70933-008667FM-12+000999999V0200701N011019999999N012000199+00221+00071098281ADDAY161021AY221021GA1081+004501071GE19MSL   +99999+99999GF108991081999004501999999MA1999999098171MD1310091+9999MW1611REMSYN06001001 41462 80711 10022 20007 39817 49828 53009 76162 886//=
0089010010999992018011716004+70933-008667FM-12+000999999V0200801N010019999999N999999999+00191+00081098341ADDMA1999999098231MD1310141+9999REMSYN04801001 46/// /0810 10019 20008 39823 49834 53014=
0089010010999992018011717004+70933-008667FM-12+000999999V0201301N008019999999N999999999+00111+00051098451ADDMA1999999098341MD1310221+9999REMSYN04801001 46/// /1308 10011 20005 39834 49845 53022=
0085010010999992018011718004+70933-008667FM-12+000999999V020999999999999999999999999999+99999+99999999999REMSYN07601001 11X08 91408 10007 20003 39850 49862 53034 69932 76164 333 10033 91116=
0089010010999992018011719004+70933-008667FM-12+000999999V0201301N003019999999N999999999+00041+00011098801ADDMA1999999098681MD1310451+9999REMSYN04801001 46/// /1303 10004 20001 39868 49880 53045=
0089010010999992018011720004+70933-008667FM-12+000999999V0201101N002019999999N999999999+00151+00121098891ADDMA1999999098771MD1110431+9999REMSYN04801001 46/// /1102 10015 20012 39877 49889 51043=
0089010010999992018011721004+70933-008667FM-12+000999999V0200801N005019999999N999999999+00181+00121098991ADDMA1999999098871MD1110371+9999REMSYN04801001 46/// /0805 10018 20012 39887 49899 51037=
0089010010999992018011722004+70933-008667FM-12+000999999V0200601N003019999999N999999999+00191+00121099071ADDMA1999999098951MD1310281+9999REMSYN04801001 46/// /0603 10019 20012 39895 49907 53028=
0089010010999992018011723004+70933-008667FM-12+000999999V0200601N003019999999N999999999+00211+00111099141ADDMA1999999099021MD1110251+9999REMSYN04801001 46/// /0603 10021 20011 39902 49914 51025=
0247010010999992018011800004+70933-008667FM-12+000999999V0200701N005012200019N012000199+00251+00121099201ADDAA106000091AY161021AY241021GA1041+008001061GE19MSL   +99999+99999GF104991041999008001999999MA1999999099081MD1110211+9999MW1021OD139900901999REMSYN07601001 11562 40705 10025 20012 39908 49920 51021 69901 70264 84500 333 91109=EQDQ01  00002PRCP06
0089010010999992018011801004+70933-008667FM-12+000999999V0200601N003019999999N999999999+00221+00101099231ADDMA1999999099111MD1210161+9999REMSYN04801001 46/// /0603 10022 20010 39911 49923 52016=
0089010010999992018011802004+70933-008667FM-12+000999999V0200401N002019999999N999999999+00201+00061099271ADDMA1999999099151MD1210141+9999REMSYN04801001 46/// /0402 10020 20006 39915 49927 52014=
0089010010999992018011803004+70933-008667FM-12+000999999V0200701N003019999999N999999999+00211+00071099291ADDMA1999999099171MD1210091+9999REMSYN04801001 46/// /0703 10021 20007 39917 49929 52009=
0089010010999992018011804004+70933-008667FM-12+000999999V0200601N004019999999N999999999+00231+00101099311ADDMA1999999099191MD1210081+9999REMSYN04801001 46/// /0604 10023 20010 39919 49931 52008=
0089010010999992018011805004+70933-008667FM-12+000999999V0200401N003019999999N999999999+00221+00111099351ADDMA1999999099231MD1210081+9999REMSYN04801001 46/// /0403 10022 20011 39923 49935 52008=
0312010010999992018011806004+70933-008667FM-12+000999999V0203001N001019999999N012000199+00201+00081099371ADDAA112000091AA224000331AJ199991999999999AY161021AY221021GA1051+004501061GE19MSL   +99999+99999GF105991051999004501999999IA1179KA1240N+00021MA1999999099251MD1210081+9999MW1021OD139900801999REMSYN09401001 11462 53001 10020 20008 39925 49937 52008 69902 70262 85500 333 20002 40999 70003 91108=EQDQ01  00002PRCP12
0089010010999992018011807004+70933-008667FM-12+000999999V0203201N001019999999N999999999+00211+00091099391ADDMA1999999099271MD1210081+9999REMSYN04801001 46/// /3201 10021 20009 39927 49939 52008=
0089010010999992018011808004+70933-008667FM-12+000999999V0201601N001019999999N999999999+00171+00061099431ADDMA1999999099311MD1210081+9999REMSYN04801001 46/// /1601 10017 20006 39931 49943 52008=
0187010010999992018011809004+70933-008667FM-12+000999999V0200501N003019999999N012000199+00171+00081099471ADDAY151021AY221021GA1071+004501061GE19MSL   +99999+99999GF107991071999004501999999MA1999999099351MD1210101+9999MW1501REMSYN06001001 41462 70503 10017 20008 39935 49947 52010 75052 875//=
0089010010999992018011810004+70933-008667FM-12+000999999V0200601N004019999999N999999999+00191+00081099521ADDMA1999999099401MD1210121+9999REMSYN04801001 46/// /0604 10019 20008 39940 49952 52012=
0089010010999992018011811004+70933-008667FM-12+000999999V0200201N001019999999N999999999+00181+00051099561ADDMA1999999099441MD1210131+9999REMSYN04801001 46/// /0201 10018 20005 39944 49956 52013=
0248010010999992018011812004+70933-008667FM-12+000999999V0200701N004019999999N015000199+00171+00031099581ADDAA106000021AY151021AY221021GA1071+004501061GE19MSL   +99999+99999GF107991071999004501999999MA1999999099461MD1210121+9999MW1021OD139900701999SA1+0071REMSYN08801001 11465 70704 10017 20003 39946 49958 52012 69901 70252 875// 222// 00007 333 91107=
0089010010999992018011813004+70933-008667FM-12+000999999V0203601N003019999999N999999999+00161+00041099611ADDMA1999999099491MD1210091+9999REMSYN04801001 46/// /3603 10016 20004 39949 49961 52009=
0089010010999992018011814004+70933-008667FM-12+000999999V0200601N004019999999N999999999+00201+00051099631ADDMA1999999099511MD1210071+9999REMSYN04801001 46/// /0604 10020 20005 39951 49963 52007=
0187010010999992018011815004+70933-008667FM-12+000999999V0203001N001019999999N015000199+00181+00041099651ADDAY121021AY221021GA1051+004501061GE19MSL   +99999+99999GF105991051999004501999999MA1999999099531MD1210071+9999MW1021REMSYN06001001 41465 53001 10018 20004 39953 49965 52007 70222 85500=
0089010010999992018011816004+70933-008667FM-12+000999999V0203401N003019999999N999999999+00231+00001099651ADDMA1999999099531MD1210041+9999REMSYN04801001 46/// /3403 10023 21000 39953 49965 52004=
0089010010999992018011817004+70933-008667FM-12+000999999V0203201N009019999999N999999999+00121-00031099671ADDMA1999999099551MD1210041+9999REMSYN04801001 46/// /3209 10012 21003 39955 49967 52004=
0247010010999992018011818004+70933-008667FM-12+000999999V0202101N004019999999N015000199+00151-00041099721ADDAA112000091AY121021AY221021GA1051+004501061GE19MSL   +99999+99999GF105991051999004501999999KA1120M+00251MA1999999099601MD1310071+9999MW1021OD139901201999REMSYN08201001 11465 52104 10015 21004 39960 49972 53007 60002 70222 85500 333 10025 91112=
0089010010999992018011819004+70933-008667FM-12+000999999V0203401N010019999999N999999999+00031-00071099721ADDMA1999999099601MD1210071+9999REMSYN04801001 46/// /3410 10003 21007 39960 49972 52007=
0089010010999992018011820004+70933-008667FM-12+000999999V0203501N011019999999N999999999+00081-00031099731ADDMA1999999099611MD1110061+9999REMSYN04801001 46/// /3511 10008 21003 39961 49973 51006=
0089010010999992018011821004+70933-008667FM-12+000999999V0203401N008019999999N999999999-00031-00091099741ADDMA1999999099621MD1310021+9999REMSYN04801001 46/// /3408 11003 21009 39962 49974 53002=
0089010010999992018011822004+70933-008667FM-12+000999999V0203601N009019999999N999999999+00001-00061099741ADDMA1999999099621MD1310021+9999REMSYN04801001 46/// /3609 10000 21006 39962 49974 53002=
0089010010999992018011823004+70933-008667FM-12+000999999V0203501N009019999999N999999999+00011-00041099681ADDMA1999999099561MD1810051+9999REMSYN04801001 46/// /3509 10001 21004 39956 49968 58005=
0228010010999992018011900004+70933-008667FM-12+000999999V0200201N010019999999N005000199+00031-00031099681ADDAA106000021AY171021AY221021GA1081+002501061GE19MSL   +99999+99999GF108991081999002501999999MA1999999099561MD1710061+9999MW1681OD139901501999REMSYN07601001 11350 80210 10003 21003 39956 49968 57006 69901 76872 885// 333 91115=
0089010010999992018011901004+70933-008667FM-12+000999999V0203601N010019999999N999999999+00031-00081099631ADDMA1999999099511MD1610111+9999REMSYN04801001 46/// /3610 10003 21008 39951 49963 56011=
0093010010999992018011902004+70939-008669FM-12+001099999V0203601N0117199999999999999999+00021-00071099571ADDKA1010M+00041KA2010N+00031MA1999999099451MD1810111+9999OC101671OD190101181999REMSYN004BUFR
